:0E0000000C9448000C9400000C9400000C942A
:10000E0000000C9400000C9400000C9400000C9462
:10001E0000000C9400000C9400000C9400000C9452
:10002E0000000C9400000C9400000C9400000C9442
:10003E0000000C9400000C9400000C9400000C9432
:10004E0000000C94000000000000312B2D2F2E3CE0
:10005E002200202020202020200001002D4E414E85
:10006E0000494E46000080C0080060026000080093
:10007E0068026000010070026800020074027400E1
:10008E000000F894EE27ECBBF1E0FBBFEBBFE5BF41
:10009E008DE0A2E0BB27ED938A95E9F780E098E02A
:1000AE00A0E6ED930197E9F7E6E7F0E085919591EB
:1000BE00009761F0A591B59105901590BF01F001E3
:1000CE0005900D920197E1F7FB01F0CFEFE5EDBF43
:1000DE00E8E0EEBFC0E6D2E00C948500AA931A9336
:1000EE00E981EFB9779BFECF1FB118810C94EF0118
:1000FE00EFEFEFB9779BFECFEFB10895E5978CE068
:10010E00A0E0B0E0E4E5F0E00E94980210E031E6F5
:10011E0040E050E0E0E0EABBEBBBE0EBE7BBE0E049
:10012E00E8BBEFE0E4BBE0E0E5BBE1BBE2BBE3BF75
:10013E00E2BFECBFEFBDEEBDEDBDECBDE7BDE6BD74
:10014E00EBBDEABDE9BDE8BDE2BDE5BDE4BDE3BD85
:10015E00E9BFE5BFE4BFEAB9E0E8E8B9E0E0E0BF37
:10016E00E6B9E0E5EDB9E1E0EEB9EEB1EFB1E0E010
:10017E00E6BFA0E10E9423027894E0EFE4BBEFE734
:10018E00E98731E6313619F4BAD03E2FFBCF103065
:10019E0011F4333209F415C0313359F00E94510273
:1001AE00DE011C96EA0FFB1F3083A32F0E94FD0178
:1001BE0007C011E00E945802DE0114960E9412023E
:1001CE0098C0103021F0313310F0383308F091C060
:1001DE000E945D02AF3709F510E00E945802A0E6BA
:1001EE00B2E00E941202AA81BB810E9494028CF49A
:1001FE00EA81FB813197EA83FB83DE011C96AE0F09
:10020E00BF1FE0E0EC93EA810E946602A0E20E942A
:10021E00FD01EA810E9466026CC00E945D02A2325C
:10022E0009F047C010E040E050E0EA81FB814E1734
:10023E005F0754F4DE011C96A40FB51FAC910E940B
:10024E006A024F5F5F4FF1CFA2E20E946A02E0E0C6
:10025E00EA83EB83A8E8B3E10E948A0249DFF0E06B
:10026E00E883F983AEE1B0E00E947002E881F98183
:10027E004E175F0764F43CDF0E2FA02F0E94FD0186
:10028E00AEE1B0E00E948A024F5F5F4FEFCFA8EB66
:10029E00BBE00E9470024932E0E05E074CF4DE01E2
:1002AE001C96A40FB51FE0E0EC934F5F5F4FF3CFAA
:1002BE0020C0EA81FB81DE011C96EA0FFB1F0F01B5
:1002CE00E32FF0E0F197DE011496AE0FBF1FEC9115
:1002DE00D001EC9310E00E945802A8E6B2E00E9412
:1002EE0012020E9451020E9466020E945D020E944A
:1002FE00FD01AEE5B1E00E948A0243CFFFCFEFEEE3
:10030E000E947702989902C0E1E30895999902C07C
:10031E00E2E308959A9902C0E3E30895EFED0E9497
:10032E007702989902C0E4E30895999902C0E5E333
:10033E0008959A9902C0E6E30895EFEB0E947702C2
:10034E00989902C0E7E30895999902C0E8E30895E9
:10035E009A9902C0E9E30895EFE70E94770298990F
:10036E0002C0EAE20895999902C0E0E308959A99CD
:10037E0002C0E3E20895E1E60895AA93EBB3EF70AD
:10038E00AE2FE881E07FEA2BEBBB8DE08A95F1F78B
:10039E00DA9A8DE08A95F1F7DA988DE08A95F1F781
:1003AE0077C0AA93A881E9DFE881E295E883A88166
:1003BE00E4DF85E88A95F1F76BC0AA93E881F0E057
:1003CE00EC58FD4FE081A981AE0FEBDF59804880DC
:1003DE0022960895A2E00E947C02ACE0E2DFA1E04A
:1003EE000E947C02E0E04E2E5E2E0895AA93A88114
:1003FE00AA3011F0571448F0E0E0EA934394A42D8C
:10040E00DCDFA881AA3009F443C05394D89AA8819E
:10041E00C8DFD8983DC0BA93AA931A93A981BA811E
:10042E00ED91A983BA831E2FE03019F0A12FDEDFE4
:10043E00F5CF188123960895AA93EAB3E06FEABB2D
:10044E00D29AD09AD19ADA98D898D9987880E881A9
:10045E00E058E0937602E881E054E0937702A4E15D
:10046E00B0E00E948A020E9482020E9482020E94D2
:10047E008202A0E282DF88EC90E00197F1F7A8E219
:10048E0090DFA4E08EDFA5E88CDFA6E08ADFA2DF96
:10049E0021960895EA81FB813196EA83FB83319799
:1004AE000895E0E0EA93A1E00C94E401E32FF0E07C
:1004BE00F197DE011496AE0FBF1FAC910895EA932B
:1004CE00A0E00C94E4010E947500AEE1B0E00C9443
:1004DE008A020E948A020E94F10140E050E00895D3
:1004EE00E5BBA5E0B0E00C948A020E94D801A3E01F
:1004FE00B0E00C948A02A0E30E94C40188EC90E064
:10050E000197F1F70895109639F080ED97E0019775
:10051E00F1F7A8951197C9F7089500240A160B064E
:10052E000895AC0FBD1F05900D928A95E1F70895C1
:00000001FF
