:0A0000000C943C000C9400000C94DA
:10000A0000000C9400000C9400000C9400000C9466
:10001A0000000C9400000C9400000C9400000C9456
:10002A0000000C9400000C9400000C9400000C9446
:10003A0000000C9400000C9400000C9400000C9436
:10004A0000000C9400000C940000000001002D4EEA
:10005A00414E00494E46000080C002000400540090
:10006A0001008902560002008D0262000000F89425
:10007A00EE27ECBBF1E0FBBFEBBFE5BF8DE0A2E0F2
:10008A00BB27ED938A95E9F780E098E0A0E6ED9327
:10009A000197E9F7E4E6F0E085919591009761F020
:1000AA00A591B59105901590BF01F00105900D92AB
:1000BA000197E1F7FB01F0CFEFE5EDBFE8E0EEBF16
:1000CA00C0E6D2E00C945B01AA931A93E981EFB9D6
:1000DA00779BFECF1FB118810C94F902779BFECF54
:1000EA00EFB10895A0E6B2E0A40DB51DEC91089514
:1000FA001A93A0E6B2E0A40DB51DEC911E2FF201F1
:10010A0031962F01E12F199108952C97EDECE88390
:10011A00ECECE983EA83EDE3EB83EDECEC83ECECC6
:10012A00ED83EE83EDE3EF83E3DFF0E0F0970E94E7
:10013A008D030E949203D6DFE03318F0D3DFEA334F
:10014A0008F023C0E885F9856A857B85A0E0B0E0E0
:10015A0080E291E40E94EF047F936F93FF93EF9301
:10016A00C7DFF0E0AF91BF918F919F910E948D03FD
:10017A000E949F04DF01CB01E0E0F0E060E472E45A
:10018A000E9497030E949203D6CFACDFEE3221F58C
:10019A00AFDFA8DFE03318F0A5DFEA3308F01CC0B0
:1001AA00A7DFF0E0F0970E949C030E948D030E9453
:1001BA00EF04A885B9858A859B850E949F040E94C1
:1001CA009203EC81FD816E817F810E949C030E94D3
:1001DA00EF040E949F03DDCFE885F9856A857B8558
:1001EA002C96089524977EDFE03318F07BDFEA33FC
:1001FA0008F003C08ADF0C948B0374DFE83249F4F9
:10020A0077DF35D00E949F0373DF0E94A2030C940C
:10021A008B0368DFED3231F46BDFE4DF0E94F90310
:10022A000C948B03E0E0F0E060E070E00C948B0348
:10023A002497D8DF0E949F0355DFEA3219F052DF74
:10024A00EF3289F455DFEA3231F4CCDF0E949C03A5
:10025A000E94EF0405C0C6DF0E949C030E943D0570
:10026A000E94B905E9CF0E94A2030C948B0324973C
:10027A00DFDF0E949F0336DFEB3219F033DFED3206
:10028A0089F436DFEB3231F4D3DF0E949C030E94FB
:10029A009F0405C0CDDF0E949C030E9497030E9421
:1002AA00B905E9CF0E94A2030C948B03AF970E9471
:1002BA00A503E0E0EB83EC83ED8311E620E030E078
:1002CA0040E050E0EABBEBBBE0E4E7BBE0E0E8BBC0
:1002DA00E4BBE5BBE1BBE2BBE3BFE2BFECBFEFBD02
:1002EA00EEBDEDBDECBDE7BDE6BDEBBDEABDE9BDCA
:1002FA00E8BDE2BDE5BDE4BDE3BDE9BFE5BFE4BFDE
:10030A00EAB9E0E8E8B9E0E0E0BFE6B9E0E4EDB96F
:10031A00E0E0EEB9E6BFA0E10E941B03DFDE1E2F7C
:10032A00123209F047C0AFEF0E9407034424552454
:10033A009EDF0E949F030E94A2030E94BE05E2E084
:10034A00EA93DE011B960E94EA01DE0116960E94DC
:10035A00C202AF01A42FB8DEE0E0EC83ED83AC81EA
:10036A00BD81A417B50774F4EC81FD81DE011696F0
:10037A00AE0FBF1FAC91A8DEEC81FD813196EC83F4
:10038A00FD83EDCF0E94FB0220E030E0E0E0EC8349
:10039A00ED83AC81BD81999764F4EC81FD81E05ACB
:1003AA00FD4FA0E0A083EC81FD813196EC83FD83B3
:1003BA00F0CF09C0A12F0E940703F9012F5F3F4F19
:1003CA00E05AFD4F1083AACFFFCFBA93AA9324977E
:1003DA000E94A503EFE3EB831A930A93EB85FC854E
:1003EA00EF3FAFEFFA0739F40E94AA03A8E5B0E09D
:1003FA000E94B502B1C0EF3FAFE7FA0739F40E9495
:10040A00AA03A9E5B0E00E94B502A6C0AC85AA235A
:10041A0062F4E985FA856B857C850E94F9030E945E
:10042A00AF030E94B403EDE2EC93A885A73010F065
:10043A00E6E0E8871885E12F1150E03039F00E9494
:10044A00BB030E94C0030E94C703F5CF0E94CC03DE
:10045A000E949F040E94AF0310E0E0E0F0E060E831
:10046A007FE30E94C7030E94CC030E94820588F0A2
:10047A000E94BB030E94D5030E94C7031F5F173265
:10048A0038F00E94AA03ADE5B0E00E94B50264C04C
:10049A00EACF103029F40E94B403E0E3EC932FC0B2
:1004AA00E12F1150E03059F10E94BB030E94C003B2
:1004BA00A0E0B0E080E09FE30E949F04DF01CB014F
:1004CA000E947A030E94C7030E94CC030E943D0542
:1004DA000E942C040E2F0E94B403E02FE05DEC93DF
:1004EA00E02FF0E00E94BB030E948D030E94EF04FC
:1004FA000E94DC030E9497030E94AF03D1CFE885D4
:10050A00E03031F10E94B403EEE2EC93E885E15069
:10051A00E887EF5FE9F00E94DC030E94D5030E949E
:10052A00AF03E985FA856B857C850E942C040E2F22
:10053A000E94B403E02FE05DEC93E02FF0E00E940C
:10054A00DC030E948D030E9497030E94AF03DECF53
:10055A00AE81BF81E0E0EC93198108812D96089560
:10056A00BA93AA93E991F991A991B991CD0105900C
:10057A000D920020E1F7FC010895BA93AA93A9917C
:10058A00B991EE27FF276D91662311F03196FBCFC3
:10059A000895AA93EBB3EF70AE2FE881E07FEA2BC0
:1005AA00EBBB8DE08A95F1F7DA9A8DE08A95F1F73F
:1005BA00DA988DE08A95F1F765C0AA93A881E9DFF8
:1005CA00E881E295E883A881E4DF85E88A95F1F776
:1005DA0059C0AA93E881F0E0E357FD4FE081A98171
:1005EA00AE0FEBDF7980688022960895A2E00E9420
:1005FA00E103ACE0E2DFA1E00E94E103E0E06E2E5D
:10060A007E2E0895AA93A881AA3011F0791440F099
:10061A00E0E0EA936394A62DDCDFA881AA3091F189
:10062A007394D89AA881C9DFD8982CC0AA93EAB340
:10063A00E06FEABBD29AD09AD19ADA98D898D99828
:10064A009880E881E058E0938F02E881E054E093D3
:10065A009002A4E1B0E00E94EF030E94E7030E9427
:10066A00E7030E94E703A0E294DF88EC90E0019799
:10067A00F1F7A8E2A2DFA4E0A0DFA5E89EDFA6E0EA
:10068A009CDFB4DF219608950E94C3057B816A81AD
:10069A00F981E88177FB770F67FD7160972F9E5785
:1006AA0081F078F0983190F4AA27BB27882708941C
:1006BA008795B795A7959A95D1F7EA23FB236823DF
:1006CA0005C0E8947727EE27FF2766276F77769588
:1006DA0008F4606877F9A991B99189919991EA1713
:1006EA00FB076807790797FB08950E94C3051FD087
:1006FA000E9449031FD011F420D008C0EEF71DD084
:10070A00A0E0B0E080E89FE30E9498042496089550
:10071A000E94AA050E9465040895E887F9876A87F6
:10072A007B8708950E94C8050E94980408950E9434
:10073A00B40508950E94B90508950E94AF05089569
:10074A00E0E0E883E983EA830895EE81FF81FA9382
:10075A00EA930895E987FA876B877C870895AE81C3
:10076A00BF811196AE83BF8311970895AA81BB8179
:10077A008C819D810895EDECFCEC6CEC7DE30E948C
:10078A00EF040895EA83FB836C837D830895EA81ED
:10079A00FB816C817D81A985BA858B859C850895AD
:1007AA00E0E0F0E060E271E40E94EF040895A985B8
:1007BA00BA858B859C8508950E94E202A3E0B0E089
:1007CA000C94EF03A0E30E94CE0288EC90E001971C
:1007DA00F1F70895109639F080ED97E00197F1F757
:1007EA00A8951197C9F7089530976040704009F0AD
:1007FA0070580895552342F4503811F4E0FF04C0AC
:10080A003196691F791F6BF050E8572711F45F93EF
:10081A00CFC05F3F31F0660F000C57956795752F73
:10082A0008955F9300200AF0CFC0C8C050E8192E7F
:10083A001522880F991F9527550F879550E8072E7F
:10084A000522660F771F7527550F679508956894D7
:10085A0001C0E8945F93F2DF703818F07F3F08F424
:10086A00A7C056E1571BAAF4519558300EF45930D7
:10087A0030F0EFEFFFEF6FEF7FE777F91AC07727D6
:10088A005523B9F0EE0FFF1F661F771F5A95D1F750
:10089A0010C07727583028F0EF2FF62F672F5850BF
:1008AA00F9CF552331F076956795F795E7955A95DF
:1008BA00D1F700200AF441D15F910895689401C0EC
:1008CA00E894309760407040B1F0002426F0772316
:1008DA0012F4009432D1172E7EE1112032F07A956B
:1008EA00EE0FFF1F661F111CF9CFEF2FF62F612D98
:1008FA005F938ADF5F9108954F93AF01FD01DA019B
:10090A00AB01BC01CA01402D012C142E4F91089550
:10091A00EA0FFB1F681F0895E095F0956095EF5F59
:10092A00FF4F6F4F08955F9381DF903871F150E860
:10093A00152604C05F937ADF903839F1703821F1B7
:10094A00572F591B2BF112F4D7DFFACF583118F071
:10095A00AA27BB278827583028F0AB2FB82F88271B
:10096A005850F9CF552329F08695B795A7955A95EA
:10097A00D9F7502D512572F0CBDF38F46795F795EA
:10098A00E795739513F420C0B7DF3EDF5F910895B2
:10099A00D8F7FBCFEA1BFB0B680B51F010F400945D
:1009AA00BBDF662392F3EE0FFF1F661F7A95CBF724
:1009BA00EE27FF27662777275F910895EFEFFFEF6E
:1009CA006FE77FEF5F910895EFEFFFEF6FE77FE744
:1009DA005F9108955F932ADF703851F3903841F39D
:1009EA0001240894791F23F41CF300203AF3ECCF76
:1009FA000F921F932F933F934F93112722279927E3
:100A0A00689FA0018F9F302D410D591F6B9F300D9C
:100A1A00411D591F8E9F27D0BF9F25D06A9F23D083
:100A2A00BE9F1DD0AF9F1BD0AE9F110D291F391F2E
:100A3A00491F591FE32FF42F652F522F4F913F91D2
:100A4A002F911F910F9066232AF0550FEE1FFF1F5B
:100A5A00661F02C073954BF2CDDE5F910895100DAB
:100A6A00211D391F02C0200D311D491F591F08952C
:100A7A005F93DCDE703821F411200AF49FCFA4CFF3
:100A8A00903809F495CF01240894970B1BF4D4F3FA
:100A9A000020F3CF792F1F932F933F934F93112465
:100AAA001127222733274427552790E2AE17BF077D
:100ABA008607410730F0AE1BBF0B860B410B08942B
:100ACA0001C08894551F221F331F111CAA1FBB1F68
:100ADA00881F441F9A9551F7F901612D4F913F9153
:100AEA002F911F91662332F0550FEE1FFF1F661FCD
:100AFA007A9543F27FDE5F91089599239AF07723DE
:100B0A0042F0971748F029F4AE17BF07860720F07E
:100B1A0031F09894889408959894089408951894B4
:100B2A00889408957723C2F7971798F3A9F7EA17D5
:100B3A00FB07680788F399F3ECCFF09560957095F9
:100B4A00E195FF4F6F4F7F4F08956F2F660F660B2A
:100B5A00762F0895E881F9816A817B810895A881B9
:100B6A00B9818A819B810895E883F9836A837B83AB
:100B7A0008957A936A93FA93EA9308959A938A93D3
:100B8A00BA93AA930895182E862F612D192E972F9E
:100B9A00712D1B2EBF2FF12D1A2EAE2FE12D089588
:00000001FF
