:100000000C944C000C9400000C9400000C94000024
:100010000C9400000C9400000C9400000C94000060
:100020000C9400000C9400000C9400000C94000050
:100030000C9400000C9400000C9400000C94000040
:100040000C9400000C9400000C9400000C94000030
:100050000C9400001027E80364000A00010000105F
:10006000000110000100610000004D6F62696E61C7
:10007000204B617368616E69616E000080C004008E
:1000800004006600110060026A00110071026A003B
:10009000020082027C000000F894EE27ECBBF1E045
:1000A000FBBFEBBFE5BF8DE0A2E0BB27ED938A95D8
:1000B000E9F780E098E0A0E6ED930197E9F7EEE735
:1000C000F0E085919591009761F0A591B59105902B
:1000D0001590BF01F00105900D920197E1F7FB012A
:1000E000F0CFEFE5EDBFE8E0EEBFC0E6D2E00C9464
:1000F0007900E0E0EABBEBBBE7BBE8BBE4BBE5BBF8
:10010000E1BBE2BBEBB9E8E1EAB9E6E8E0BDE0E07B
:10011000E0BDE3E3E9B9A0E196D0A42D72D00E943E
:1001200051015E2EE3E4E51509F45FD0EEE4E51538
:1001300061F40E946A01A0E6B2E00E945C010E94A4
:100140006A01A4E6B0E00E948601E3E6E51569F4E1
:1001500066247724E8E1F0E06E167F0634F40E940E
:100160006A01F30131963F01F5CFEDE4E51541F465
:100170003CD0A1E7B2E05CD0A4EFB1E00E948601E0
:10018000A4E6B0E00E948601CACFFFCFAA93E5B3F0
:10019000EF70AE2FE881E07FEA2BE5BB8DE08A951A
:1001A000F1F7AA9A8DE08A95F1F7AA988DE08A95E1
:1001B000F1F70C945A01AA93A881E8DFE881E2954F
:1001C000E883A881E3DF85E88A95F1F70C945A016A
:1001D000AA93E881F0E0EE57FD4FE081A981AE0FD0
:1001E000EADF9980888022960895A2E00E9470013B
:1001F000ACE0E1DFA1E00E947001E0E08E2E9E2ED7
:100200000895AA93A881AA3011F09B1450F0E0E061
:10021000EA938394A82DDCDFA881AA3011F40C9412
:100220005A019394A89AA881C6DFA8980C945A0101
:10023000BA93AA931A930E94760119F0A12FE1DFD5
:10024000FACF0C946701AA93E4B3E06FE4BBA29ADF
:10025000A09AA19AAA98A898A998B880E881E0588D
:10026000E0938402E881E054E0938502A4E1B0E0E9
:100270000E9486010E947E010E947E010E947E01F2
:10028000A0E284DF88EC90E00197F1F7A8E293DF29
:10029000A4E091DFA5E88FDFA6E08DDFA6DF0C9458
:1002A0005A015F9BFECFECB10895AA935D9BFECFF0
:1002B000E881ECB921960895BA93AA931A930E9403
:1002C000760119F0A12FF1DFFACFAAE0EEDF188155
:1002D00023960895AAE00E945501ADE00C945501C3
:1002E0000E94DB00A3E0B0E00C948601A981BA81F2
:1002F000ED91A983BA831E2FE0300895A0E30E94F8
:10030000C60088EC90E00197F1F70895109639F057
:1003100080ED97E00197F1F7A8951197C9F7089537
:00000001FF
