:040000000C94450017
:100004000C9472000C9481000C949D000C940000DC
:100014000C9400000C9400000C9400000C9400005C
:100024000C9400000C9400000C9400000C9400004C
:100034000C9400000C9400000C9400000C9400003C
:100044000C9400000C9400000C9400000C9400002C
:100054001027E80364000A000100001000011000EA
:100064000100000080C001002D4E414E00494E4663
:100074000000020004006600020060026800010043
:1000840064026A000000F894EE27ECBBF1E0FBBFC9
:10009400EBBFE5BF8DE0A2E0BB27ED938A95E9F7BE
:1000A40080E098E0A0E6ED930197E9F7E6E7F0E059
:1000B40085919591009761F0A591B5910590159062
:1000C400BF01F00105900D920197E1F7FB01F0CF1C
:1000D400EFE5EDBFE8E0EEBFC0E6D2E00C94A3008C
:1000E4000E94A4019B9B03C0F2013A9602C0F20154
:1000F40031962F01A5E0B0E00E94C0010EC00E941D
:10010400A4019B9B03C0F2013A9702C0F20131970C
:100114002F01A5E0B0E00E94C001E991EFBFF99181
:10012400E991B991A9919991899179916991F990FC
:100134001990099018959B9B02C0AB9801C0AB9A8B
:100144001895E0E0EBBBEABBE8BBE7BBE5BBE4BB6F
:10015400E2BBE1BBE3BFE2BFECBFEFBDEEBDEDBD73
:10016400ECBDE7BDE6BDEBBDEABDE9BDE8BDE2BD62
:10017400E5BDE4BDE3BDEBB7E06EEBBFEAE0E5BF90
:10018400E0E0E4BFE0EEEABFE0E0E9BFEAB9E0E8BE
:10019400E8B9E0E0E0BFE6B9EDB9E6BFA0E176D0AA
:1001A400A39A7894E0E0EA93A0E031D05A924A927C
:1001B400D3010E947601D30158D0A0E241D0A0E23D
:1001C4003FD0A2E3B0E00E94C001ECCFFFCFAA93DE
:1001D400E5B3EF70AE2FE881E07FEA2BE5BB8DE05D
:1001E4008A95F1F7AA9A8DE08A95F1F7AA988DE09D
:1001F4008A95F1F777C0AA93A881E9DFE881E295AF
:10020400E883A881E4DF85E88A95F1F76BC0AA93B7
:10021400E881F0E0E05AFD4FE081A981AE0FEBDF09
:100224009980888022960895A2E00E94B201ACE0F1
:10023400E2DFA1E00E94B201E0E08E2E9E2E08953E
:10024400AA93A881AA3011F09B1448F0E0E0EA9345
:100254008394A82DDCDFA881AA3009F443C09394C9
:10026400A89AA881C8DFA8983DC0BA93AA931A9304
:10027400A981BA81ED91A983BA831E2FE03019F0C8
:10028400A12FDEDFF5CF188123960895AA93E4B356
:10029400E06FE4BBA29AA09AA19AAA98A898A998F8
:1002A400B880E881E058E0936202E881E054E0938A
:1002B4006302A4E1B0E00E94C0010E94B8010E9460
:1002C400B8010E94B801A0E282DF88EC90E00197B7
:1002D400F1F7A8E290DFA4E08EDFA5E88CDFA6E0CA
:1002E4008ADFA2DF21960895BA93AA93A991B991BE
:1002F400E991F99130962AF4E095F09531966DE202
:100304006D93E89480E197E20DD088EE93E00AD0F3
:1003140084E6992707D08AE005D06E2F10D066278F
:100324006C9308956627E817F90720F06395E81B96
:10033400F90BC9F7662311F416F008956894605D0B
:100344006D9308950A921A92FA926A937A938A9311
:100354009A93AA93BA93EA93FA93EFB7EA93089518
:100364000E94FD00A3E0B0E00C94C001A0E30E9451
:10037400E90088EC90E00197F1F70895109639F0C0
:1003840080ED97E00197F1F7A8951197C9F70895C3
:00000001FF
