:100000000C9448000C9400000C9400000C94000028
:100010000C9400000C9400000C9400000C94000060
:100020000C9400000C9400000C9400000C94000050
:100030000C9400000C9400000C9400000C94000040
:100040000C9400000C9400000C9400000C94000030
:100050000C9400001027E80364000A00010000105F
:1000600000011000010054494D453E202564202523
:100070006420256400444154453E202564202564C5
:1000800020256425640080C0020060028600000014
:10009000F894EE27ECBBF1E0FBBFEBBFE5BF8DE0D2
:1000A000A2E0BB27ED938A95E9F780E098E0A0E60F
:1000B000ED930197E9F7E8E8F0E0859195910097D5
:1000C00061F0A591B59105901590BF01F0010590E3
:1000D0000D920197E1F7FB01F0CFEFE5EDBFE8E00E
:1000E000EEBFC0E6D2E00C947500E0E0EABBEBBBEB
:1000F000E7BBE8BBE4BBE5BBE1BBE2BBE3BFE2BF00
:10010000ECBFEFBDEEBDEDBDECBDE7BDE6BDEBBDAB
:10011000EABDE9BDE8BDE2BDE5BDE4BDE3BDE9BFC3
:10012000E5BFE4BFEAB9E0E8E8B9E0E0E0BFE6B97E
:10013000EDB9E6BF0E941204E0E0EA93EA93A0E082
:1001400064D0A0E10E945A03A097E5E0F0E0FA93A2
:10015000EA93E4E0F0E0FA93EA93A7E0B0E06FD02E
:10016000FE017096FA93EA93E6E6F0E0FA93EA93DA
:10017000E52D0E94AE03E42D0E94AE03E72D0E9400
:10018000AE038CE00E94C70260960E942803E0E064
:10019000EA93A0E00E941B03DE0150960E944903EF
:1001A000E6E0F0E0FA93EA93E9E0F0E0FA93EA930C
:1001B000E8E0F0E0FA93EA93ABE0B0E059D0FE015A
:1001C000FA93EA93E5E7F0E0FA93EA93E92D0E94C7
:1001D000AE03E82D0E94AE03EB2D0E94AE03EB2D83
:1001E0000E94AE0380E10E94C7026496E0E0EA93B9
:1001F000A1E00E941B03DE010E944903A4E6B0E0D7
:100200000E946304A096A0CFFFCFAA93EA81E37077
:10021000EA83E981E03019F0EA81E061EA83E8816C
:10022000E03019F0EA81E068EA830E94B403A7E0B5
:100230000E944B04AA810E94B9030C945803BA93FC
:10024000AA930E94B403A0E00E94B9030E94BD03D8
:100250000E94C5030E94CC030E94D203AE2F0E94CD
:100260008803AC81BD81EC930E94260426960895F4
:10027000BA93AA930E94B403A3E00E94B9030E9418
:10028000BD03AE81BF81EC930E94CC03AC81BD81E4
:10029000EC930E94CC030E94D2030E94C5030E94EB
:1002A000260428960895BA93AA931A930A93AA81CA
:1002B000BB8112960E947504309759F1AA81BB81C7
:1002C00014960E9475048F01309761F00230E0E0CF
:1002D0001E0798F0F80131978F01AA81BB8114960F
:1002E000ED93FC93AA81BB811296ED91FD9131961D
:1002F000FE93EE933197AC81A083AA81BB810E94CB
:100300007504FF232AF0ED91FD913196FE93EE9353
:1003100006C0AA81BB81EFEFFFEFED93FC9319813B
:10032000088125960895BA93AA9326970E9482047D
:1003300010E0AC85BD85E0E0F0E0ED93FC93EA8948
:10034000FB893196EA8BFB8B3197E4912E2FE030BD
:1003500009F415C1E12FE03039F4253211F411E030
:1003600002C00E94D8030AC1E130A9F4253219F471
:100370000E94D80302C112E040E000E02D3211F4E7
:1003800001E0FCC02B3211F44BE2F8C0203211F432
:1003900040E2F4C002C0E23039F450E013E0203310
:1003A00011F40068EBC003C0E33009F0E7C020336C
:1003B00010F02A3308F007C0AAE05A9F502DE22F10
:1003C000E0535E0FDBC0E22FE33649F40E94DF0307
:1003D000E889F989A481AA930E94E503CEC0E33796
:1003E00041F40E94DF030E94EB030E9495031E2F3D
:1003F0000AC0E03761F40E94DF030E94EB030E9411
:10040000A1031E2F086002600F7730E034C0E4368D
:1004100011F0E93611F4046002C0E53731F4E4E587
:10042000F0E0EE83FF8315E00CC0E83511F40860BE
:1004300003C0E83709F0A1C0EEE5F0E0EE83FF83EA
:1004400014E002FF14C00E94DF030E94F503AB8595
:10045000AA233AF4EA85FB850E947104EA87FB87A8
:100460004DE2403011F01F5F01C00B7F04C00E94BD
:10047000DF030E94F50300FD11C0151778F407FF94
:1004800008C002FF04C00B7F242F115001C020E3DD
:1004900001C020E20E94D8035150EFCF312F01FF5D
:1004A00017C03030A1F003FF06C0EE81FF81259117
:1004B000EE83FF8305C0AE81BF812D91AE83BF83E4
:1004C0000E94D803503009F051503150EACF4BC050
:1004D00020E3EE81FF810E947904E887F987EE81AD
:1004E000FF813296EE83FF83E885F985AA85BB8577
:1004F000AE17BF0750F02F5FA885B985EA85FB8549
:10050000EA1BFB0BEA87FB87EFCF2A3328F003FFB8
:1005100002C0295F01C0295D04FD1AC0213320F407
:10052000A885B985119709F409C0531710F000FF89
:1005300001C013C020E207FF0BC020E3006102FFEF
:1005400007C00B7F4A930E94E503503009F05150D9
:100550000E94D803503009F051503150A885B98518
:10056000129708F0B5CF00FF08C0503031F051505D
:10057000E0E2EA930E94E503F8CF10E0E0CEAC851C
:10058000BD850E9475040E94890464960895FF92B7
:10059000F82E26970E9484040E94FD03309719F4D8
:1005A000EFEFFFEF23C0DE0116960E946D048D0170
:1005B0000E94FD03EE83FF83E0E0E887E987DE0128
:1005C0001A960E946D040E947504FA93EA931A9396
:1005D0000A93E3E5F1E0FA93EA93DE011A96A3DECB
:1005E0009F01AE81BF81E0E0EC93F9010E948B0492
:1005F0002A96FF900895AA93EBB3EF70AE2FE8818F
:10060000E07FEA2BEBBB8DE08A95F1F7DA9A8DE07B
:100610008A95F1F7DA988DE08A95F1F777C0AA9379
:10062000A881E9DFE881E295E883A881E4DF85E835
:100630008A95F1F76BC0AA93E881F0E0E05AFD4F8C
:10064000E081A981AE0FEBDFA980D88022960895C2
:10065000A2E00E940404ACE0E2DFA1E00E940404F6
:10066000E0E0DE2EAE2E0895AA93A881AA3011F004
:10067000AC1448F0E0E0EA93D394AD2DDCDFA88120
:10068000AA3009F443C0A394D89AA881C8DFD898A7
:100690003DC0BA93AA931A93A981BA81ED91A98317
:1006A000BA831E2FE03019F0A12FDEDFF5CF1881BD
:1006B00023960895AA93EAB3E06FEABBD29AD09A40
:1006C000D19ADA98D898D998C880E881E058E09310
:1006D0006202E881E054E0936302A4E1B0E00E948A
:1006E00063040E940A040E940A040E940A04A0E211
:1006F00082DF88EC90E00197F1F7A8E290DFA4E0B8
:100700008EDFA5E88CDFA6E08ADFA2DF21960895C0
:10071000AA93E881E295EF70AE2FAA0FAA0FEA0F15
:10072000EE0FA991AF70EA0F0895BA93AA93A99119
:10073000B991EE27FF276D91662311F03196FBCF1B
:100740000895BA93AA93AA27BB27E991F991059036
:10075000002011F01196FBCFFD010895FF276627B9
:1007600077270E947D0408950E941704A0ED0C9441
:100770004B040E944B040C9426040E941704A1ED24
:100780000E944B04A1E00C943004AE2F0E94880319
:10079000A881B981EC930895A1E00E943004AE2FA6
:1007A0000C948803AA81BB81EC93A0E00C943004E4
:1007B0002A93AD85BE85EF85F88909950895E88966
:1007C000F9893497E88BF98B0895AD85BE85EF855F
:1007D000F88909950895A889B98914960E94750425
:1007E000EE83FF83AE81BF810895A889B9891496ED
:1007F0000E947504EA87FB870895DE011C960E941B
:100800006D040E94750408950E940F03A3E0B0E0F8
:100810000C946304A0E30E94FB0288EC90E0019733
:10082000F1F70895A898A998A09AA19815C0A19841
:10083000A098EE270000999B0895989B089504D0F6
:10084000A19A02D0A09AE1E06DE007C0A19AA09A17
:1008500003D0A098F9DFA1986BE16A95F1F70895AC
:1008600078E0A098F1DF989BFECFEEDF889499990D
:100870000894A09AF1DFEE1F7A9599F77A2F7723E3
:1008800011F4A19801C0A19ADFDFA098E5DFA09A3A
:10089000DBDFA198D9CF78E0AA0F10F4A19801C0AE
:1008A000A19ADADFA098D0DF989BFECFCDDFA09A87
:1008B0007A9591F7A198C8DFA098CEDFE1E09999E9
:1008C000EE27A09AC1CF109639F080ED97E00197FE
:1008D000F1F7A8951197C9F708950024AF0DB01D41
:1008E0000895F195E195F0400895ED91FC911197EF
:1008F00008950590F491E02D08957A936A93FA9300
:10090000EA9308955A934A933A932A931A930A932F
:1009100008955D814C813B812A8119810881089568
:00000001FF
