:060000000C9434000C9486
:1000060000000C9400000C9400000C9400000C946A
:1000160000000C9400000C9400000C9400000C945A
:1000260000000C9400000C9400000C9400000C944A
:1000360000000C9400000C9400000C9400000C943A
:1000460000000C9400000C9400000C9400000900C1
:1000560008000C000400060009000100030002006D
:100066000600F894EE27ECBBF1E0FBBFEBBFE5BF63
:100076008DE0A2E0BB27ED938A95E9F780E098E052
:10008600A0E6ED930197E9F7EFE5EDBFE8E0EEBFF7
:10009600C0E6D2E00C94A10044245524E7E0F0E049
:1000A6004E165F068CF4E0E0EDBDECBDE1E0EEBD82
:1000B600E8B7E470E9F3E8B7E460E8BFE0E0EEBD76
:1000C600F20131962F01EACF0895062C072811F088
:1000D600E0E0E3BD082C092811F0E0E0ECBF062CB7
:1000E600072831F0082C092819F4ECB7EC3F08F082
:1000F60003C0ECB7EC5FECBF062C072819F4ECB78D
:10010600E03009F403C0ECB7E150ECBF082C092835
:1001160031F0062C072819F4E3B5EC3F08F003C0CC
:10012600E3B5EC5FE3BD082C092819F4E3B5E0302C
:1001360009F403C0E3B5E150E3BD0895649784E193
:10014600A0E0B0E0E4E5F0E00E94540100E010E039
:1001560020E030E0E0E0EABBEBBBE8E8E7BBE0E04C
:10016600E8BBEFEFE4BBE0E0E5BBEFEFE1BBE0E0CF
:10017600E2BBEDE6E3BFE0E0E2BFECBFEFBDEEBD04
:10018600EDBDECBDE7BDE6BDEBBDEABDE9BDE8BD35
:10019600E2BDEFE6E5BDE0E0E4BDE3BDE9BFE5BFF6
:1001A600E4BFEAB9E0E8E8B9E0E0E0BFE6B9EDB9F6
:1001B600E6BF72DFE9B3E0716E2E7724E9B3E8702B
:1001C6008E2E9924E9B3E470CE2EDD24E9B3E270D5
:1001D600AE2EBB24E9B3E170F0E0E0936002F09349
:1001E6006102309721F0E0E0E3BDECBF01C06DDFB6
:1001F6000C2C0D2819F00A2C0B2809F00EC0E2B3BE
:10020600E078E2BB0430E0E01E0714F40F5F1F4FF6
:1002160033D020E030E03CD02DC00C2C0D2819F452
:100226000A2C0B2809F012C0E2B3E078E2BB0024E6
:100236000016010614F4015010401ED000240216C8
:10024600030614F42150304023D014C00A2C0B2886
:1002560019F00C2C0D2809F00DC02430E0E03E0703
:1002660014F42F5F3F4F14D000E010E0E2B3E078C3
:10027600E2BB02D09ECFFFCF02B2F801DE011A9692
:10028600EE0FFF1FAE0FBF1FEC91E029E2BB0895F2
:10029600F901DE01EE0FFF1FAE0FBF1FEC91E5BBAC
:1002A6000895AC0FBD1F05900D928A95E1F708954C
:00000001FF
