:080000000C9454000C94000064
:100008000C9400000C9400000C9400000C94000068
:100018000C9400000C9400000C9400000C94000058
:100028000C9400000C9400000C9400000C94000048
:100038000C9400000C9400000C9400000C94000038
:100048000C9400000C9400000C9400001027E803A6
:1000580064000A00010000100001100001004B4577
:100068005950414420414E44204C43440050524F83
:100078004A4543540025640080C001002D4E414E7E
:1000880000494E4600000F006002660008006F023B
:10009800750002007702800001007B0282000000E8
:1000A800F894EE27ECBBF1E0FBBFEBBFE5BF8DE0BA
:1000B800A2E0BB27ED938A95E9F780E098E0A0E6F7
:1000C800ED930197E9F7EEE8F0E0859195910097B7
:1000D80061F0A591B59105901590BF01F0010590CB
:1000E8000D920197E1F7FB01F0CFEFE5EDBFE8E0F6
:1000F800EEBFC0E6D2E00C9481002797E0E0ED83E4
:10010800EE830E94E503EFEFE4BBEFE0E1BBE0E044
:10011800E5BBA0E167D134D1E1E00E94EC03A0E6A1
:10012800B2E04FD1E5E0EA93A1E01DD1AFE6B2E03D
:1001380048D1A0EDB7E00E94370422D19FD0E883D0
:10014800A881AF3F09F498C099D0EF3FE9F7A4E13F
:10015800B0E00E943704A881AA3008F472C0AA301F
:1001680019F4A5E219D167C0A881AB3019F4AAE245
:1001780013D161C0A881AD3019F4ADE20DD15BC0D7
:10018800A881AC3019F4ABE207D155C0A881AE30D4
:1001980009F04AC0ADE300D1FA01EA30A0E0FA075D
:1001A80039F4F901D8010E946E04ED83FE8323C05F
:1001B800EB30A0E0FA0739F4F901D8010E9456049F
:1001C800ED83FE8318C0EC30A0E0FA0731F4F901A2
:1001D800E00FF11FED83FE830EC0ED30A0E0FA07BB
:1001E80031F4F801E21BF30BED83FE8304C00E9497
:1001F800E5030E94F003042E052AA9F0FE013196BA
:10020800FA93EA93EDE7F0E0FA93EA93E985FA8541
:100218000E9449040E94890484E00E949803289659
:10022800DE011196CED007C0A881AF3021F40E941C
:10023800E5030E94F003A881AF3011F048815527EB
:100248001BC0A881A05DA8D0042E052A59F4F80186
:10025800AAE0B0E00E9456048F01E881F0E00E0F9A
:100268001F1F0AC0F901AAE0B0E00E9456049F01CE
:10027800E881F0E02E0F3F1F61CFFFCF1A931FEFE9
:10028800909A91980E94F703849B02C017E00AC0D5
:10029800859B02C018E006C0869B02C019E002C018
:1002A80087991AE09098919A0E94F703849B02C05C
:1002B80014E00AC0859B02C015E006C0869B02C0F8
:1002C80016E002C087991BE090989198929A9398AB
:1002D800A5E0B0E00E943704849B02C011E00AC088
:1002E800859B02C012E006C0869B02C013E002C0D4
:1002F80087991DE0909891989298939AA5E0B0E01C
:100308000E943704849B02C01FE00AC0859B02C07C
:1003180010E006C0869B02C01EE002C087991CE060
:10032800E12F19910895AA93EBB3EF70AE2FE881EE
:10033800E07FEA2BEBBB8DE08A95F1F7DA9A8DE046
:100348008A95F1F7DA988DE08A95F1F777C0AA9344
:10035800A881E9DFE881E295E883A881E4DF85E800
:100368008A95F1F76BC0AA93E881F0E0E958FD4F50
:10037800E081A981AE0FEBDF59804880229608956D
:10038800A2E00E94FD03ACE0E2DFA1E00E94FD03D1
:10039800E0E04E2E5E2E0895AA93A881AA3011F0AF
:1003A800571448F0E0E0EA934394A42DDCDFA881D9
:1003B800AA3009F443C05394D89AA881C8DFD898C2
:1003C8003DC0BA93AA931A93A981BA81ED91A983E2
:1003D800BA831E2FE03019F0A12FDEDFF5CF188188
:1003E80023960895AA93EAB3E06FEABBD29AD09A0B
:1003F800D19ADA98D898D9987880E881E058E0932B
:100408007902E881E054E0937A02A4E1B0E00E9426
:1004180037040E9403040E9403040E940304A0E21C
:1004280082DF88EC90E00197F1F7A8E290DFA4E082
:100438008EDFA5E88CDFA6E08ADFA2DF219608958B
:10044800BA93AA931A930A93AA81BB8112960E941F
:100458008104309759F1AA81BB8114960E948104C6
:100468008F01309761F00230E0E01E0798F0F80144
:1004780031978F01AA81BB811496ED93FC93AA81D1
:10048800BB811296ED91FD913196FE93EE933197D3
:10049800AC81A083AA81BB810E948104FF232AF03A
:1004A800ED91FD913196FE93EE9306C0AA81BB8132
:1004B800EFEFFFEFED93FC931981088125960895DE
:1004C800BA93AA9326970E948E0410E0AC85BD8546
:1004D800E0E0F0E0ED93FC93EA89FB893196EA8B42
:1004E800FB8B3197E4912E2FE03009F415C1E12FF1
:1004F800E03039F4253211F411E002C00E940B04F7
:100508000AC1E130A9F4253219F40E940B0402C192
:1005180012E040E000E02D3211F401E0FCC02B3283
:1005280011F44BE2F8C0203211F440E2F4C002C0EA
:10053800E23039F450E013E0203311F40068EBC0E6
:1005480003C0E33009F0E7C0203310F02A3308F085
:1005580007C0AAE05A9F502DE22FE0535E0FDBC080
:10056800E22FE33649F40E941204E889F989A4814C
:10057800AA930E941804CEC0E33741F40E941204E3
:100588000E941E040E94CC031E2F0AC0E03761F4AB
:100598000E9412040E941E040E94D8031E2F0860A5
:1005A80002600F7730E034C0E43611F0E93611F418
:1005B800046002C0E53731F4E4E5F0E0EE83FF8340
:1005C80015E00CC0E83511F4086003C0E83709F0FD
:1005D800A1C0EEE5F0E0EE83FF8314E002FF14C053
:1005E8000E9412040E942804AB85AA233AF4EA85E3
:1005F800FB850E944504EA87FB874DE2403011F0F5
:100608001F5F01C00B7F04C00E9412040E942804CF
:1006180000FD11C0151778F407FF08C002FF04C0D9
:100628000B7F242F115001C020E301C020E20E945B
:100638000B045150EFCF312F01FF17C03030A1F01C
:1006480003FF06C0EE81FF812591EE83FF8305C07D
:10065800AE81BF812D91AE83BF830E940B045030C1
:1006680009F051503150EACF4BC020E3EE81FF81B1
:100678000E948504E887F987EE81FF813296EE8330
:10068800FF83E885F985AA85BB85AE17BF0750F0BB
:100698002F5FA885B985EA85FB85EA1BFB0BEA87EE
:1006A800FB87EFCF2A3328F003FF02C0295F01C080
:1006B800295D04FD1AC0213320F4A885B985119756
:1006C80009F409C0531710F000FF01C013C020E25D
:1006D80007FF0BC020E3006102FF07C00B7F4A93AE
:1006E8000E941804503009F051500E940B045030F9
:1006F80009F051503150A885B985129708F0B5CF47
:1007080000FF08C0503031F05150E0E2EA930E94F7
:100718001804F8CF10E0E0CEAC85BD850E948104B6
:100728000E94950464960895FF92F82E26970E94D9
:1007380090040E943004309719F4EFEFFFEF23C0C4
:10074800DE0116960E9441048D010E943004EE835A
:10075800FF83E0E0E887E987DE011A960E944104FA
:100768000E948104FA93EA931A930A93E4E2F2E06E
:10077800FA93EA93DE011A96A3DE9F01AE81BF8148
:10078800E0E0EC93F9010E9497042A96FF900895FF
:10079800BA93AA93A991B991EE27FF276D91662381
:1007A80011F03196FBCF0895BA93AA93AA27BB27D5
:1007B800E991F9910590002011F01196FBCFFD0108
:1007C800089500E010E020E030E040E050E00895B7
:1007D800EA93A0E00C94B701E0E0ED83EE830E9479
:1007E800C401E0E0F5CF92989398A5E0B0E00C94AE
:1007F80037040E94AB01A3E0B0E00C943704A0E3F7
:100808000E94970188EC90E00197F1F708952A93E8
:10081800AD85BE85EF85F88909950895E889F98938
:100828003497E88BF98B0895AD85BE85EF85F889F7
:1008380009950895A889B98914960E948104EE83C0
:10084800FF83AE81BF810895A889B98914960E9453
:100858008104EA87FB870895DE011C960E94410403
:100868000E9481040895109639F080ED97E0019771
:10087800F1F7A8951197C9F708950024AF0DB01D99
:100888000895F195E195F04008956F2F660F660B76
:10089800762F0895FA9FF02DEB9FF00DEA9FE02D3B
:1008A800F10D08951CD0F6DF0EF4EBDF0895002457
:1008B800112490E1AA0FBB1F001C111C0E1A1F0A5D
:1008C80018F40E0E1F1E01C0A1609A9599F7FD013C
:1008D800D001089504D0EBDF0EF4D3DF0895E89437
:1008E800F7FF02C0CEDF6894B7FF06C0A095B095A9
:1008F800119600F8039400FA0895ED91FC91119770
:1009080008950590F491E02D08957A936A93FA93E7
:10091800EA9308955A934A933A932A931A930A9317
:1009280008955D814C813B812A8119810881089550
:00000001FF
