:0C0000000C9430000C9400000C940000E4
:10000C000C9400000C9400000C9400000C94000064
:10001C000C94A6000C9400000C9400000C940000AE
:10002C000C9400000C9400000C9400000C94000044
:10003C000C9400000C9400000C9400000C94000034
:10004C000C9400000C940000173A0100040004000A
:10005C0054000000F894EE27ECBBF1E0FBBFEBBFC3
:10006C00E5BF8DE0A2E0BB27ED938A95E9F780E030
:10007C0098E0A0E6ED930197E9F7E8E5F0E08591CB
:10008C009591009761F0A591B59105901590BF01E0
:10009C00F00105900D920197E1F7FB01F0CFEFE530
:1000AC00EDBFE8E0EEBFC0E6D2E00C94C100BA931D
:1000BC00AA93E881F981309719F4EFE3F0E03EC0A0
:1000CC00E130A0E0FA0719F4E6E0F0E037C0E230E6
:1000DC00A0E0FA0719F4EBE5F0E030C0E330A0E063
:1000EC00FA0719F4EFE4F0E029C0E430A0E0FA07D5
:1000FC0019F4E6E6F0E022C0E530A0E0FA0719F4C6
:10010C00EDE6F0E01BC0E630A0E0FA0719F4EDE7ED
:10011C00F0E014C0E730A0E0FA0719F4E7E0F0E0F3
:10012C000DC0E830A0E0FA0719F4EFE7F0E006C0E4
:10013C00E930A0E0FA0711F4EFE6F0E0229608951A
:10014C00EA93EFB7EA937394ECE3E71511F4539445
:10015C007724ECE3E51511F443945524ECE3E41512
:10016C0009F44424660C662011F4E1E06E2EE9914A
:10017C00EFBFE99118952897E0E8E883E0E0E98380
:10018C00EA83EB83EC83ED83EE83EF8300E010E0F6
:10019C0020E030E040E050E0EABBEBBBE7BBE8BB63
:1001AC00EFEFE4BBE0E0E5BBEFEFE1BBE0E0E2BB8F
:1001BC00EFBDECE0EEBDE0E0EDBDECBDE7BDE6BDB6
:1001CC00EAE7EBBDE2E1EABDE0E0E9BDE8BDE0E174
:1001DC00E9BF789468BAA72D3FD0AF01A72D42D0C4
:1001EC00EA83FB83A52D38D08F01A52D3BD0EE8360
:1001FC00FF83A42D31D09F01A42D34D0EC83FD833B
:10020C00DA01E2E0F0E00E947201309729F4E0E8B4
:10021C00F0E0E883F98303C0E0E0E883E983EEEFE4
:10022C00E2BBAC81BD8124D0EDEFE2BBD90126D07D
:10023C00EBEFE2BBAE81BF811BD0E7EFE2BBD80195
:10024C001DD0EFEEE2BBAA81BB8112D0EFEDE2BB79
:10025C00DA0114D0BFCFFFCFBB27EAE0F0E00E9459
:10026C0072010895B0E0EAE0F0E00E946D0108959B
:10027C001EDFE5BBA5E0B0E00C944C0118DFA881B3
:10028C00EA2BE5BBA5E0B0E00C944C01109639F0DC
:10029C0080ED97E00197F1F7A8951197C9F70895AC
:1002AC00F195E195F04008950024112490E1AA0FF6
:1002BC00BB1F001C111C0E1A1F0A18F40E0E1F1E59
:1002CC0001C0A1609A9599F7FD01D001089512D053
:1002DC00EBDF0EF4E5DF0895E894B7FF04C0A095BA
:1002EC00B09511966894F7FDDBDFDEDFFD010EF4AF
:1002FC00D7DF0895E894F7FF02C0D2DF6894B7FF08
:10030C0006C0A095B095119600F8039400FA0895D4
:00000001FF
