:040000000C943A0022
:100004000C9400000C9400000C9400000C9400006C
:100014000C9400000C9400000C9400000C9400005C
:100024000C9400000C9400000C9400000C9400004C
:100034000C9400000C9400000C9400000C9400003C
:100044000C9400000C9400000C9400000C9400002C
:100054000100007E11117E007F494936003E414176
:1000640022007F41413E007F494941007F09090147
:10007400F894EE27ECBBF1E0FBBFEBBFE5BF8DE0EE
:10008400A2E0BB27ED938A95E9F780E098E0A0E62B
:10009400ED930197E9F7EFE5EDBFE8E0EEBFC0E6C9
:1000A400D2E00C945500A09780E2A0E0B0E0E4E533
:1000B400F0E00E94DB0020E030E040E050E0EFEFB1
:1000C400E5BBE4BBE0E0E2BBEFEFE1BB00E010E046
:1000D4000F31E0E01E0794F520E030E02930E0E045
:1000E4003E074CF540E050E04830E0E05E07E4F4C1
:1000F400E42FA1E00E94B200E8BBDA01A00FB11F17
:10010400EEE1F0E00E94CD00DE011296AE0FBF1FBB
:10011400EC91E095E5BBA3E0B0E00E94A400E8B355
:10012400E2BB4F5F5F4FE0CFAAE0B0E00E94A400C3
:100134002F5F3F4FD3CF0F5F1F4FCACF01E010E0B7
:10014400C5CFFFCF109639F080ED97E00197F1F716
:10015400A8951197C9F70895F195E195F040089590
:10016400EE230E2EEA2F19F0EE0F0A94E9F7089504
:100174000024112490E1AA0FBB1F001C111C0E1AAD
:100184001F0A18F40E0E1F1E01C0A1609A9599F75C
:10019400FD01D0010895E894B7FF04C0A095B0957F
:1001A40011966894F7FDD8DFE3DFFD010EF4D4DF88
:1001B4000895AC0FBD1F05900D928A95E1F708953F
:00000001FF
