:0A0000000C943C000C940D010C94CC
:10000A0000000C9400000C9400000C9400000C9466
:10001A0000000C940F010C9400000C9400000C9446
:10002A000E010C9400000C9400000C9400000C9437
:10003A0000000C9400000C9400000C9400000C9436
:10004A0000000C9400000C94000032000004070B1E
:10005A00004D000000000000000000000000000049
:10006A000000000000000A00040054000000F89498
:10007A00EE27ECBBF1E0FBBFEBBFE5BF8DE0A2E0F2
:10008A00BB27ED938A95E9F780E098E0A0E6ED9327
:10009A000197E9F7E0E7F0E085919591009761F023
:1000AA00A591B59105901590BF01F00105900D92AB
:1000BA000197E1F7FB01F0CFEFE5EDBFE8E0EEBF16
:1000CA00C0E6D2E00C943601E5E0E3BFE7EEE2BF1A
:1000DA00E8B7E0FFFDCFE1E0E8BF08951A931FEF0C
:1000EA00909A919892989398EFDF849B02C017E0B8
:1000FA000AC0859B02C018E006C0869B02C019E0B0
:10010A0002C087991AE09098919A92989398DCDFA6
:10011A00849B02C014E00AC0859B02C015E006C099
:10012A00869B02C016E002C087991BE090989198BE
:10013A00929A9398C9DF849B02C011E00AC0859BFA
:10014A0002C012E006C0869B02C013E002C0879973
:10015A001DE0909891989298939AB6DF849B02C07A
:10016A001FE00AC0859B02C010E006C0869B02C041
:10017A001EE002C087991CE0E12F19910895BA93F5
:10018A00AA93E881F981309719F4EFE3F0E03EC0D1
:10019A00E130A0E0FA0719F4E6E0F0E037C0E23017
:1001AA00A0E0FA0719F4EBE5F0E030C0E330A0E094
:1001BA00FA0719F4EFE4F0E029C0E430A0E0FA0706
:1001CA0019F4E6E6F0E022C0E530A0E0FA0719F4F7
:1001DA00EDE6F0E01BC0E630A0E0FA0719F4EDE71F
:1001EA00F0E014C0E730A0E0FA0719F4E7E0F0E025
:1001FA000DC0E830A0E0FA0719F4EFE7F0E006C016
:10020A00E930A0E0FA0711F4EFE6F0E0229608954B
:10021A0018951895EA93EFB7EA935394ECE3E5152A
:10022A0011F443945524ECE3E41511F47394442433
:10023A00E8E1E71511F477249394EEE1E91519F44E
:10024A008394E1E09E2EECE0E81519F4B394E1E022
:10025A008E2EE3E6EB1509F4BB24E991EFBFE99191
:10026A001895639782E1A1E0B0E0EEE5F0E00E9424
:10027A00960400E010E020E030E040E050E0EFEFCC
:10028A00E4BBEFE0E1BBEFEFE5BBE8BBEABBE7BBF2
:10029A00E0E0EFBDECE0EEBDE0E0EDBDECBDE7BDBA
:1002AA00E6BDEAE7EBBDE2E1EABDE0E0E9BDE8BDB3
:1002BA00E0E1E9BFE5E0E3BFE0E0E2BFE0E6ECBF92
:1002CA00E2E0E9BF7894A52DC1D2ED87FE87A52D7E
:1002DA00C3D2EF87F88BA42DB9D28F01A42DBCD23B
:1002EA009F01A72DB3D2AF01A72DB6D2E98BFA8B06
:1002FA00A92DACD2EB87FC87A92DAED2E987FA8764
:10030A00A82DA4D2EF83F887A82DA6D2ED83FE8369
:10031A00AB2D9CD2EB83FC83AB2D9ED2E983FA836F
:10032A00EEEFE8BBEFEEEBBBA989BA899BD2EDEF02
:10033A00E8BBEFEEEBBBDA0195D2EBEFE8BBEFEEF1
:10034A00EBBBD9018FD2E7EFE8BBEFEEEBBBD801ED
:10035A0089D2EFEEE8BBEBBBA985BA8583D2EFED74
:10036A00E8BBAB85BC857ED2EEEFEBBBEFEFE8BB1B
:10037A00AD81BE8177D2EDE7EBBBEFEFE8BBAF8192
:10038A00B88570D2EBEFEBBBEFEFE8BBA981BA817E
:10039A0069D2E7EFEBBBEFEFE8BBAB81BC8162D27E
:1003AA009DDEE883A881AF3F09F44EC297DEEF3F96
:1003BA00E9F78ADE89DE88DE87DEA881A13031F49A
:1003CA00D394E2E0ED1509F4DD243EC2A881A230FF
:1003DA0009F0FBC0E1E0ED1509F0F6C0EA1509F5F0
:1003EA00A989BA89109721F44530E0E05E070CF438
:1003FA0002C0772415C0A989BA89E1E0F0E00E9419
:10040A0052040E2EDA01E2E0F0E00E945204E029E2
:10041A0021F0E9892AD2E40F02C0E42FEC5E7E2E95
:10042A00D3C0E2E0EA15D9F4A989BA89109721F470
:10043A0000240416050609F004C0E9891BD27E2EA1
:10044A000DC0A989BA89129721F400240416050659
:10045A0009F003C0E7E17E2E01C07A94B5C0E3E05B
:10046A00EA1581F4022E032A21F4E02FEE5C4E2EC7
:10047A0008C0F90104D2E63020F4E22FF6D1E00FE9
:10048A004E2EA2C0E4E0EA1559F4002E012A31F4F6
:10049A00AAE02A02F001E75F4E2E01C04A9494C0F6
:1004AA00E5E0EA1591F4E985FA85309719F4EEE169
:1004BA009E2E0AC0EB85FC85E2D1E43028F4E9855A
:1004CA00D4D1AB85EA0F9E2E7FC0E6E0EA15B1F4DF
:1004DA00EB85FC85309721F4E985CCD19E2E0DC0A1
:1004EA00A985BA85109721F4AB85BC85119709F0C7
:1004FA0003C0E9E09E2E01C09A9466C0E7E0EA15BF
:10050A0029F5AF81B88513971CF0ECE08E2E1DC03B
:10051A00AD81BE81119729F4EF81F885B0D1E3301E
:10052A0008F006C0ED81A1D1AF81EA0F8E2E0DC071
:10053A00AD81BE81109729F4EF81F885A0D1E3300F
:10054A0008F003C0EF81E65F8E2E3EC0E8E0EA15B0
:10055A00C9F4EF81F885309739F4ED81AAE0EA020F
:10056A00F001EE5F8E2E0DC0AD81BE81109721F491
:10057A00AF81B885119709F003C0E9E08E2E01C05A
:10058A008A9422C0E9E0EA1599F4E981FA8177D1DF
:10059A00EA3030F4E98169D1AB81EA0FBE2E07C097
:1005AA00E981FA81309719F4EB81E65ABE2E0CC024
:1005BA00EAE0EA1549F4EB81FC81309721F4E981FC
:1005CA0059D1BE2E01C0BA943FC1A881A33009F007
:1005DA0030C1E1E0ED1509F02BC1EA15E1F4A72DD0
:1005EA003BD1319721F4A72D31D135970CF402C0B4
:1005FA00E7E10FC0A72D30D1E230A0E0FA0719F4E5
:10060A00A72D24D106C0A72D27D13ED1A72D1ED1B3
:10061A00E60F7E2E0DC1E2E0EA1529F5A72D1CD1C1
:10062A00329731F4A72D12D1E330A0E0FA0709F08E
:10063A0003C0E4E17E2E16C0A72D0ED1309721F01B
:10064A00E130A0E0FA0731F4A72D00D1E930A0E0AB
:10065A00FA0709F006C0A72DFFD0AAE0EA02702C1B
:10066A0001C07394E5C0E3E0EA15D1F4A42DF4D0F7
:10067A00E530A0E0FA0721F4A42DE8D04E2E0FC0F1
:10068A00A42DEAD0A0E0B0E00E945804E53038F486
:10069A00A42DE2D0F9D0A42DD9D0E60F4E2EC8C091
:1006AA00E4E0EA1571F4A42DD1D0E930A0E0FA070C
:1006BA0031F4A42DD1D0AAE0EA02402C01C043941F
:1006CA00B7C0E5E0EA15E1F4A92DC6D0E330A0E011
:1006DA00FA0711F4E1E012C0A92DBED0329729F42D
:1006EA00A92DB4D00E9492040CF002C0EEE106C01B
:1006FA00A92DB2D0C9D0A92DA9D0E60F9E2E98C097
:10070A00E6E0EA1541F5A92DA1D0399721F4A92DE2
:10071A00A3D0309709F003C0E1E09E2E1BC0A92D9B
:10072A009BD0E330A0E0FA0719F4EEE19E2E12C046
:10073A00A92D92D0319731F4A92D88D0E930A0E0C3
:10074A00FA0709F006C0A92D87D0EF5F93D09E2E35
:10075A0001C093946DC0E7E0EA1521F5A82D76D083
:10076A0033971CF0ECE08E2E1CC0A82D75D0319763
:10077A0029F4A82D6BD083D0E33008F004C0A82D4B
:10078A0065D08E2E0EC0A82D67D0309729F4A82DDB
:10079A005DD075D0E33008F004C0A82D57D0E65FCD
:1007AA008E2E46C0E8E0EA15B1F4ECE0E81519F43B
:1007BA00EAE08E2E0FC0A82D4FD0309731F4A82D25
:1007CA0045D0E930A0E0FA0709F003C0E1E08E2E37
:1007DA0001C083942DC0E9E0EA15D1F4AB2D3CD0D9
:1007EA00A0E0B0E00E945804E93040F4AB2D34D0C8
:1007FA004BD0AB2D2BD0E60FBE2E09C0AB2D2CD083
:10080A00E930A0E0FA0719F4AB2D20D0BE2E10C0B3
:10081A00EAE0EA1569F4AB2D19D0E930A0E0FA074D
:10082A0031F4AB2D19D0AAE0EA02B02C01C0B3947E
:10083A000BC0A881A43041F4E1E0ED1529F4EAE007
:10084A00EA1509F4AA24A3943ECDFFCFBB27EAE018
:10085A00F0E00E9476040895B0E0EAE0F0E00E9439
:10086A00710408958CDCE5BB2FCCE150AAE0EA02C2
:10087A00F0010895AAE0EA02F001E75F0895A1E015
:10088A00B0E00E9458040895EF5FAAE0EA02602DE2
:10089A000895F195E195F0400895EA17FB07E1E024
:1008AA0009F0EE270895EA17FB07E1E00CF4EE27BA
:1008BA0008950024112490E1AA0FBB1F001C111CEB
:1008CA000E1A1F0A18F40E0E1F1E01C0A1609A9577
:1008DA0099F7FD01D001089512D0EBDF0EF4D9DFAC
:1008EA000895E894B7FF04C0A095B095119668944E
:1008FA00F7FDCFDFDEDFFD010EF4CBDF0895E894CC
:10090A00F7FF02C0C6DF6894B7FF06C0A095B0958E
:10091A00119600F8039400FA089500240E160F06A3
:10092A000895AC0FBD1F05900D928A95E1F70895C1
:00000001FF
