:040000000C944A0111
:100004000C9400000C9400000C9400000C9400006C
:100014000C9400000C9400000C9400000C9400005C
:100024000C9400000C9400000C9400000C9400004C
:100034000C9400000C9400000C9400000C9400003C
:100044000C9400000C9400000C9400000C9400002C
:1000540005072060000000000000005F00000007AA
:10006400000700147F147F14242A7F2A1223130804
:10007400646236495522500005030000001C2241E9
:10008400000041221C00082A1C2A0808083E08080F
:100094000050300000080808080800303000002034
:1000A400100804023E5149453E00427F400042612F
:1000B4005149462141454B311814127F10274545BB
:1000C40045393C4A494930017109050336494949D2
:1000D40036064949291E003636000000563600000F
:1000E40000081422411414141414412214080002A8
:1000F40001510906324979413E7E1111117E7F4931
:100104004949363E414141227F4141221C7F4949B0
:1001140049417F090901013E414151327F080808E4
:100124007F00417F41002040413F017F081422416C
:100134007F404040407F0204027F7F0408107F3EDE
:100144004141413E7F090909063E4151215E7F0933
:10015400192946464949493101017F01013F40407F
:10016400403F1F2040201F7F2018207F6314081465
:10017400630304780403615149454300007F41410E
:10018400020408102041417F0000040201020440DF
:1001940040404040000102040020545454787F48F9
:1001A4004444383844444420384444487F38545400
:1001B4005418087E090102081454543C7F080404AE
:1001C4007800447D40002040443D00007F102844D6
:1001D40000417F40007C041804787C0804047838CB
:1001E400444444387C14141408081414187C7C08FF
:1001F4000404084854545420043F4440203C4040E4
:10020400207C1C2040201C3C4030403C44281028CA
:10021400440C5050503C4464544C44000836410053
:1002240000007F0000004136080002010204027F42
:100234004141417F000103070F1F3F7FFF00000082
:1002440000003F001F0000000A004D6F62696E61EC
:10025400204B617368616E69616E003936353232E4
:100264003332310001002D4E414E00494E4600000C
:100274000A0004004202010097024C0211006002CD
:100284004E02090071025F0201009C026802000034
:10029400F894EE27ECBBF1E0FBBFEBBFE5BF8DE0CC
:1002A400A2E0BB27ED938A95E9F780E098E0A0E609
:1002B400ED930197E9F7E4E7F2E0859195910097D2
:1002C40061F0A591B59105901590BF01F0010590DD
:1002D4000D920197E1F7FB01F0CFEFE5EDBFE8E008
:1002E400EEBFC0E6D2E00C9477012697E0E0EABBCB
:1002F400EBBBE7BBE8BBE4BBE5BBE1BBE2BBE3BFF5
:10030400E2BFECBFEFBDEEBDEDBDECBDE7BDE6BDAC
:10031400EBBDEABDE9BDE8BDE2BDE5BDE4BDE3BDBD
:10032400E9BFE5BFE4BFEAB9E0E8E8B9E0E0E0BF6F
:10033400E6B9EDB9E6BFE4E5F0E0E883F983E0E08F
:10034400EA83EB83EC83ED83DE0158D14424552406
:1003540066247724B8D1E0E0EA93EA93A0E6B2E019
:100364000E94FB06E0E0EA93EAE0EA93A1E7B2E048
:100374000E94FB06A8EEB3E00E94CB0BA4D1EFE0F1
:10038400EA93AFE00E942B07E4E1F0E04E165F062B
:100394000CF041C0E4E3EA93ECE3EA93E8E5EA9382
:1003A400ACE30E943807E8E5EA93ECE30E949E0A76
:1003B400E4E3EA93ECE3EA93E4E30E94A40AE4E3CB
:1003C400EA93EDE1EA93EAE20E94A40AE2E6EA9300
:1003D400EDE10E949E0AE6E4EA93E0E0EA93E2E6B5
:1003E4000E94A40AE6E4EA93E0E00E94A80AEAE292
:1003F400EA93EDE10E94A80AF20131962F01E3E1AC
:10040400F0E0E415F50531F45ED1A4E6B0E00E9415
:10041400CB0B59D1B9CF57D1EEE1F0E06E167F0680
:100424000CF06BC08A92AA92AAE00E94130A0C2CC8
:100434000D2899F40E94AE0AAA1ABB0A0E94B30AB4
:100444000E94B80A1CF0E3E0F0E06F010E94C10AC8
:100454001CF0E1E0F0E06F0142C0E1E0F0E0EC15F7
:10046400FD05A9F40E94B30AAE0EBF1E0E94B30A92
:100474000E94B80A1CF0E2E0F0E06F010E94AE0AAC
:10048400AA0DBB1DDF9714F0CC24DD2428C0E2E0C4
:10049400F0E0EC15FD05A1F40E94B30AAE0EBF1EF8
:1004A4000E94C80A1CF0E1E0F0E06F010E94AE0A6D
:1004B400AA0DBB1DDF971CF0E3E0F0E06F010FC055
:1004C4000E94AE0AAA1ABB0A0E94C80A14F0CC24DD
:1004D400DD240E94C10A1CF0E2E0F0E06F01F3D0D9
:1004E4008A92AA92AAE00E94130AA2E3B0E00E94B0
:1004F400CB0BF30131963F018FCF28CFFFCF000004
:10050400C09A00000895C098C498C59808951A9395
:10051400F6DF19B3C098E12F19910895AA931A939D
:10052400E0E0EABBC19AC298E981EF5F1E2F10FF99
:1005340002C0C49A01C0C49811FF02C0C59A01C088
:10054400C598E5DFE078E9F718811FC1AA93A9816E
:10055400E5DF0E94D20A19C1E0919A02EA93E09180
:100564009902EF73E064AE2FF1DFE0919A02EA930F
:10057400E0919B02E86BAE2FE9DF0895AA93E9812D
:10058400E0939902E295EF70E695E695E0939A027E
:10059400E881E0939B02E0DFF8C0A0919902AF5F8D
:1005A400A0939902A03818F0E0E0E0939902E0915A
:1005B4009902EF7331F4E0919902EA93A0919B02BE
:1005C400DDDF0895AA93A0919A02A8DFC29A0E943F
:1005D400D20A21960895A0919A02A0DFE0E0EABB36
:1005E400C19AC29A94DF0895AA93E981EA93E981B2
:1005F4000E94DB0AF0DFB0DFEEDFC7C0BA93AA9334
:100604001A93B89AB99ABA9ABB9AC39ABC9ABD9AE1
:100614007ADFC398A4E6B0E00E94CB0BC39A10E043
:10062400123040F41A93AFE391DF1A931395A0ECC0
:100634008DDFF6CFE1E0E0937A02E0E0E0937B0225
:10064400E981FA813097A9F0A981BA810E94FB0B54
:10065400E0937E02F0937F0212960E94FB0BE093DC
:100664009302F0939402A981BA8114960E94FB0B21
:100674000AC0E0E0F0E0E0937E02F0937F02E093B2
:100684009302F0939402E0939502F0939602E1E0D2
:10069400E0938002E0938102E0938202EFEFE09323
:1006A4008302E1E0E0938A02EBE8F2E0FA93EA9352
:1006B400EFEFEA93A8E0B0E00E941D0A04D0E1E065
:1006C4001881239608950E94260C00E030E0E09102
:1006D4007B02E03009F00FEF383078F4E0E0EA9381
:1006E400A32F3F5F4BDF10E0A12F1F5FA03820F442
:1006F400A02F0E94E10AF8CFEFCFE0E0EA93A0E058
:100704003DDFE0E0EA93A0E0A4D30E942D0C249600
:100714000895AA931A930A93AC81A03818F4AB8174
:10072400A03408F016C0EC81EA93AC815DDF1E2F83
:1007340013DFEB81E770A1E00E94D90B0E2FEA8151
:10074400E03011F0102B03C0E02FE0951E23A12F01
:1007540039DF1981088125960895AA93A981A038C3
:1007640018F4A881A03410F0E0E00FC0E981EA9306
:10077400A9813ADF1E2EE881E770A1E00E94D90B1F
:10078400E12111F0E1E001C0E0E022960895AA938E
:100794001A93ED81EA93AD8127DF1E2FDDDEE98117
:1007A400E73011F0E83039F4EB81EA93AA810E9432
:1007B400380AEB8308C0E33021F4EB81E095EB8346
:1007C40002C0E03021F4EA81E0951E2302C0E23049
:1007D40029F4EA81AB81EA231E2B0EC0E13029F40F
:1007E400EA81AB81EA231E2707C0E43029F4EA81B9
:1007F400E095AB81EA2B1E23A12F0E94E10A188108
:1008040026960895AA9323970E94240CA889A038B9
:1008140048F4AF85A03430F4AE85A03019F0AD852E
:10082400A03009F4C8C1EE85E887A889BB27EE8506
:10083400F0E0AE0FBF1FA138E0E0BE0720F0A889AA
:10084400E0E8EA1BEE872D85AF85BB27ED85F0E058
:10085400AE0FBF1FA134E0E0BE0720F0AF85E0E497
:10086400EA1BED87A985A63009F05BC0EC85E13071
:1008740009F4A1C1E33039F4E0919502F0919602B4
:10088400309709F498C10885ED85E695E695E695D7
:100894003E2FE22FE77019F4AD852A17E9F0A02F57
:1008A400BB27E32FF0E00E94F30BAA85BB850E94CF
:1008B400E50A269526952695532F5F935F5FE22FD1
:1008C400AF91EA1748F0102FE12F1150E03019F0E2
:1008D4000E94EA0AF9CFF1CFAE850A1711F1EE852D
:1008E400AA85BB85F0E00E94E50AED85E77009F072
:1008F4003F5F20E02F932F5FE32FAF91AE1788F473
:100904001E851F931F5FE02FAF91AE1718F40E944E
:10091400EA0AF7CFEE85AE81BF81F0E00E94E50AD6
:10092400E9CFEF85E7703E2FED85E03009F443C150
:10093400EA85FB85EE83FF8310E00889303009F0F7
:1009440065C0AD85A83008F45CC0E985E03011F0DD
:10095400E33009F402C0E73009F402C0E83009F4D6
:1009640002C0E63009F402C0E93009F402C0EA30FA
:1009740021F40A93E8890E94DB0A1F931F5FEE8526
:10098400AF91AE17B8F5A985A63061F424DEE4DD95
:100994000E94F70AFA93EA931EDEAE2F0E947F0AA2
:1009A400FCDD27C0E985E93011F450E00EC0EA30DF
:1009B40011F45FEF0AC00E94F70A0E94000B5E2F39
:1009C400E985E73011F0E83021F40E94060B5E2F30
:1009D40006C0E33011F4509502C0E03021F4A52F95
:1009E4000E94E10A06C00E940A0BEFEFEA93AD856C
:1009F400CEDEC3CFEF85E85FEF87ED85E850ED8766
:100A0400D1C05D8520E0E0E0ED877AC0E32FAD85BD
:100A1400AE0FA93020F42D85E0E0ED8703C0E8E0B7
:100A2400E31B2E2F3A93A22F0E942D0A4E2FE98505
:100A3400E630F1F41F931F5FEE85AF91AE17B8F463
:100A44000E94100BAE2FE32F0E94E10B0E94170BA4
:100A5400E32FA42F0E94E10BE095E1215E2B0E947D
:100A6400F70AFA93EA93A52F0E947F0AE3CF2CC0DA
:100A7400E93011F450E003C0EA30A9F45FEF0E94BA
:100A8400060BAE2FE32F0E94D90B5E2F1F931F5F1F
:100A9400EE85AF91AE1730F40E940A0B4A93A0E0A2
:100AA40076DEF4CF11C01F931F5FEE85AF91AE17B2
:100AB40058F40E94220BAE2FE32F0E94D90BEA9325
:100AC4004A93AD8564DEEFCFED85E03009F473C061
:100AD400AD85A83028F4ED85E21B5E2FE0E003C06D
:100AE400532FED85E850ED8710E0EF85E85FEF8741
:100AF400E8E0E31B2E2F0889EA85FB85EE83FF835C
:100B0400E52FF0E0E85CFD4F4491E985E630F1F42F
:100B14001F931F5FEE85AF91AE17B8F40E94100BC0
:100B2400AE2FE22F0E94D90B0E94170BE22FA42FA5
:100B34000E94D90BE095E1215E2B0E94F70AFA93FB
:100B4400EA93A52F0E947F0AE3CF2CC0E93011F469
:100B540050E003C0EA30A9F45FEF0E94060BAE2F09
:100B6400E22F0E94E10B5E2F1F931F5FEE85AF9172
:100B7400AE1730F40E940A0B4A93A0E008DEF4CFCB
:100B840011C01F931F5FEE85AF91AE1758F40E94FA
:100B9400220BAE2FE22F0E94E10BEA934A93AD851C
:100BA400F6DDEFCFE885AA85BB85F0E0EA0FFB1FF1
:100BB400EA87FB87B9CE0E942B0C619608950E94A8
:100BC4002F0B24F0E0E0F0E00C94360AA881B98100
:100BD400A038E0E0BE0724F0EFE7F0E00C94360A1A
:100BE400E881F9810C94360A0E942F0B24F0E0E08E
:100BF400F0E00C94360AA881B981A034E0E0BE0785
:100C040024F0EFE3F0E00C94360AE881F9810C94C7
:100C1400360AAA93E981EA93E981EA93A0917A02D8
:100C240078DD0C94360ABA93AA9323970E94360B64
:100C34008F01002E012A19F4E0E0F0E05FC00E9469
:100C44003D0B0F820E943D0B0E820E943D0B0886D5
:100C5400EB85A885EA1718F4E0E0F0E04FC0F8014E
:100C64000F5F1F4F5491A885BB27EE27A50FBE1F0A
:100C7400EB85F0E0EA17FB0718F0E0E0F0E03EC097
:100C8400EE81E695E695E6954E2FEE81E77009F044
:100C94004F5FEF81E030A1F0A985BA85EC93A88578
:100CA400EB85EA1BF0E0DF01EF81F0E00E94F30B3B
:100CB400DF01E42FF0E00E94F30BE00FF11F1EC0F0
:100CC4009801E52FF0E00E0F1F1FA885AF5FA887DE
:100CD400A150EB85AE1760F4F9012F5F3F4FA4914B
:100CE400B0E0E42FF0E00E94F30B0E0F1F1FEDCFD6
:100CF400F901E491A985BA85EC93F8010E942B0CC3
:100D04002C960895E0E0E0937C02A0917D02BB273D
:100D14000E94420BF0E0AE0FBF1FE0918102F0E0B1
:100D2400AE0FBF1F61DFE0937D020895AA93219760
:100D34000E94360B309709F457C0AF81AA3009F4EA
:100D44004FC0EF81EA93DE0117966DDFAF01309754
:100D540019F40E942B0C06C3E0918002AE81EA0FC5
:100D64003E2FA0917C02BB270E94490B0138E0E092
:100D74001E0718F0032F1127C5DFE0917C02EA93C8
:100D8400E0917D02EA93E885EA930E94420BEA939C
:100D9400E1E0EA935A934A93A7E034DDE0917C02C0
:100DA400AE81EA0FEA93E0917D02EA93E09180023A
:100DB400EA930E94420B0E944E0BE0917C02EA935C
:100DC400A0917D020E94420BEA0FEA933A93E091CC
:100DD40081020E944E0BE0E8F0E0E017F10721F4F5
:100DE40091DF0E942B0CBEC200937C020E942B0C4C
:100DF400B9C2BA93AA931A93EC81EA93AC8129D02D
:100E0400A981BA81ED91A983BA831E2FE03019F02C
:100E1400A12F8CDFF5CF18810C942B0AAA93EA81B9
:100E2400EA93EA81EA93E0918302AA81EA2319F022
:100E3400E0917A0202C0E0917B02AE2F6ADCE88185
:100E4400EE0FE883E03011F4E1E0E883E8810C94EC
:100E54007D0AAA93A981BB27B2DEE0937C02A88114
:100E6400BB27C2DEE0937D020C94360AAA932B972B
:100E74000E94240CAC89BB27A2DEEC8BAA89BB2779
:100E84009EDEEA8BAB89BB27AFDEEB8BA989BB2740
:100E9400ABDEE98BEA89E0937C02E989E0937D0289
:100EA400E1E0E887E989AB89EA1771F51C89AA8929
:100EB4001A1731F41A93EC89EA93A1E0AFDFC8C0A2
:100EC400AA891A1730F4EA89E11B0E2F41E050E099
:100ED40006C0AA89E12FEA1B0E2F4FEF5FEF3B8973
:100EE400E0E0EE830E94580B38F41A933A9333955A
:100EF400AA8594DFEF83F6CFEF81E887140FE02F04
:100F04000150E03061F7A4C0EA89AC89EA1739F5E9
:100F14003B89A9893A1730F4E989E31B2E2FE1E0D4
:100F2400F0E006C0A989E32FEA1B2E2FEFEFFFEFB5
:100F3400ED87FE871C89E0E0EE830E94580B30F4B5
:100F44001A9313950E94600BEF83F7CFEF81E88724
:100F5400ED853E0FE22F2150E03061F779C0E0E0EB
:100F6400EE830E94580B08F073C01C893B89E1E0B2
:100F74002E2F0E2FAA89BB27EC89F0E0AE1BBF0BE6
:100F8400AD0155232AF40FEFFA010E94D50BAF01EE
:100F9400FA01EE0FFF1FEF87F88BA989BB27EB89B6
:100FA400F0E0AE1BBF0BAD87BE87AE85AA233AF433
:100FB4002FEFED85FE850E94D50BED87FE87ED852D
:100FC400FE85EE0FFF1FEB87FC871A933A93A1E08F
:100FD40025DFE887E0E0E987EA87AD85BE854A1723
:100FE4005B07BCF0100FEB85FC850E94640BA985A0
:100FF400BA854A175B072CF4320FAF85B8890E9473
:101004006B0B1A930E94600BE887EA89E11751F78A
:1010140018C0320FEF85F8890E94640BED85FE85B8
:10102400A985BA85EA17FB072CF4100FAB85BC859C
:101034000E946B0B1A930E94600BE887E989E317FF
:1010440041F7EB89EF5FEB8BE989EF5FE98B89CFA0
:101054000E942B0C65960895BA93AA9323970E9435
:10106400240CED85E887E0918202EF83E0917A0217
:10107400EE83AA89BB27EF850E94490BA989BB2768
:10108400E8890E94720BE8890E94790B71F0E88567
:10109400E078F1F4AD85BE85EAE5F0E00E94810BCD
:1010A4001CF00E948A0B0CF413C0332312F00E942C
:1010B4008F0BAF81A23020F02230E0E03E070CF429
:1010C40007C00E94930B21F40A93A22FA150A1DD23
:1010D400E885E878E83891F0E885E078C9F4AD85EA
:1010E400BE85A25FBE4F0E949C0B3CF0AD85BE85C1
:1010F400A25FBE4F0E94A10B0CF40AC00E94A60B73
:1011040038F00E94AD0B21F40A93A42FAF5F81DD68
:10111400AA89BB27EF85F0E0AE1BBF0B8D0111231D
:101124000AF445C0E885E278E23891F0E885E07891
:1011340011F5AD85BE85A65ABF4F0E949C0B3CF0AD
:10114400AD85BE85A65ABF4F0E94A10B0CF413C0F7
:10115400332312F00E948F0BAF81A23020F0223093
:10116400E0E03E070CF407C00E94930B21F40A93BD
:10117400A22FA1504EDDE885E478E43871F0E885CB
:10118400E078A9F4AD85BE85EEE0F1E00E94810B24
:101194001CF00E948A0B0CF40AC00E94A60B38F0C3
:1011A4000E94AD0B21F40A93A42FAF5F32DDAA890C
:1011B400BB27E8890E94490BA989BB27EF850E94B8
:1011C400720BEF850E94790B81F0E885E078F1F4E9
:1011D400EB85FC85AD85BE85AE17BF072CF0E98590
:1011E400FA85EA17FB070CF411C033237AF00E9446
:1011F4008F0BAF81A23050F0E02FEE5F0E94B60B50
:1012040029F4E02FEF5FEA93A22F03DDE885E87865
:10121400E83871F0E885E078C1F4AD85BE85E8E68C
:10122400F1E00E94810B1CF00E948A0B0CF40DC0AB
:101234000E94A60B50F0E02FEE5F0E94BE0B29F433
:10124400E02FEF5FEA93A42FE4DCAA89BB27E889A7
:10125400F0E0AE1BBF0B8D0111230AF450C0E885EA
:10126400E278E23871F0E885E07809F5AD85BE856D
:10127400E4EBF0E00E94810B1CF00E948A0B0CF45A
:1012840016C03323A2F00E948F0BAF81A23020F04E
:101294000230E0E01E070CF40AC0E02FE2500E9486
:1012A400B60B29F4E02FE150EA93A22FB2DCE885D3
:1012B400E478E43891F0E885E07809F5AD85BE85F9
:1012C400AC54BF4F0E949C0B3CF0AD85BE85AC5422
:1012D400BF4F0E94A10B0CF412C00E94A60B20F079
:1012E4000230E0E01E070CF40AC0E02FE2500E9436
:1012F400BE0B29F4E02FE150EA93A42F8ADC0E946C
:101304002B0C63960895AA930E94260CAF81BB27E9
:10131400ED81F0E0AE1BBF0B52DC1E2FAF81BB276B
:10132400ED81F0E0AE0FBF1F4ADC0E2FAE81BB276C
:10133400EC81F0E0AE1BBF0B57DC3E2FAE81BB2728
:10134400EC81F0E0AE0FBF1F4FDC2E2F1A933A93BF
:101354000A93A32F8BDD1A932A930A93A22F86DD77
:101364000E942D0C28960895AA930E94240CA98506
:10137400A03818F4A885A03408F04FC05091820218
:10138400E52F5150E03009F448C0EF81E03009F412
:1013940044C0EF81E150EF83EF5F0E2FF0E0A5E052
:1013A400B0E0AE1BBF0BFD010E94E90B0E94EE0BE7
:1013B4009F0110E0AE81A03459F40E94C60B1A9329
:1013C400A02FA1DF0E94C60B0A93A12F9CDF0FC0A0
:1013D4000E94C60B1A930A93EA85F0E0FA93EA9303
:1013E400E0E0F0E0FA93EA93A0E0B0E035DE1F5FBE
:1013F40033231AF4E12FF0E008C00150A12FBB27DA
:10140400E02FF0E0AE1BBF0BFD01EE0FFF1F319686
:101414002E0F3F1F011770F6B3CF0E942B0C2A9694
:101424000895AA93EA81EA93EA81EA93EA81EA9326
:10143400AFE89ADF60C0BA93AA93B981A8811096E5
:1014440031F0FC81EB816A8161931197E9F7EB81BB
:10145400FC8125960895AA93E881F0E0E85CFD4FAD
:10146400A491E9810E94D90B22960895AA931A9314
:10147400E981E73011F0EA3019F410917A0209C0D9
:10148400E93019F410917B0204C0E830A1F4109102
:101494008A02E0917B02E03049F0103019F0EFEF5E
:1014A400188129C0EA81E095188125C0103019F40B
:1014B400E0E0188120C0EA8118811DC0BA93AA9384
:1014C400EA81E13021F4E881F981E49114C0E23049
:1014D40029F4A881B9810E94FF0B0DC0E33041F4C7
:1014E400A881B981E0919302F0919402099503C017
:1014F400A881B981EC9123960895AA93EB81E030F9
:1015040029F4E881A981BA81EC9314C0E23031F462
:10151400E881A981BA810E940B0C0CC0E33051F41C
:10152400E981FA81FA93EA93AA81E0919502F09114
:101534009602099524960895EA93E8E5EA93ADE1C5
:101544000C943807EA93ADE10C943807EA93E8E386
:10155400EA93ABE00C943807A0919702B0919802FB
:101564000895E0919702F091980208958E0E9F1EBF
:10157400F3DFA80DB91DAF37E0E0BE070895ECDF37
:10158400F501EA1BFB0B0E941C0C0895E5DF8A1A87
:101594009B0AE2DFF401EA1BFB0B0E941C0C08957A
:1015A400C198EFEFEABBE881EBBB0E9481020C9487
:1015B4008502E695E695E695AE2F0C94C0020E944E
:1015C400E4020C94CF02EA0FFB1FEE83FF8308951D
:1015D400EC85EA93EF81F8853196EF83F8873197AC
:1015E400FA93EA93A0E00C947F0AEC85EA93EF81E6
:1015F400F8853196EF83F887319708956627772722
:10160400DF01CB010C94600A5A93AA850C94380A22
:101614000A930395E889EA935A9308950A930395E4
:10162400A8890E94F602E42308955E2FEC85EA93CC
:10163400AF81B885882799270E94600A1E2E0895D5
:101644000A930395E889EA93EE85EA93E985FA8596
:101654003196E987FA873197D1CFBA93AA93A881B3
:10166400B9810E94200C08950E94240CE0917E020E
:10167400F0917F020895F8010F5F1F4F04900895C1
:10168400E0917E02F0917F023196E4910895F0E0BA
:10169400EA0FFB1F8F010895EA93E0E0EA93E0E08C
:1016A400F0E0FA93EA93A9E00C940404AE81AF5FEE
:1016B400AE83A150E0918202AE1708953A93AA85B1
:1016C4000C941007A985BA85EA0FFB1FE987FA87EE
:1016D4000895E985FA85EA1BFB0BE987FA870895E3
:1016E400F0E0AE1BBF0B9D01A989BB270895F0E074
:1016F400EA0FFB1FAF01E885E178E1380895EA1BA2
:10170400FB0B0F01DF01EB85FC85AE17BF070895C6
:10171400E985FA85E015F10508950A93A22F0C9442
:101724000B060A93A22FA2500E94AF03AE2FEE81A4
:10173400EA170895EB85FC85AE17BF070895E98580
:10174400FA85EA17FB0708950A93A42F0E940B0653
:10175400AF81A23008950A93A42FAE5F0E94AF0315
:10176400AE2FEE81EA170895EA93A22F0E94AF03E9
:10177400AE2FEE81EA170895EA93A42F0E94AF03D7
:10178400AE2FEE81EA170895E985EA93E985EA9395
:101794000895109639F080ED97E00197F1F7A89538
:1017A4001197C9F70895F195E195F0400895EE2356
:1017B4000E2EEA2F19F0EE0F0A94E9F70895EE239E
:1017C4000E2EEA2F19F0E6950A94E9F70895EE0F24
:1017D400FF1FEE0FFF1F0895F595E795F595E79523
:1017E4000895FA9FF02DEB9FF00DEA9FE02DF10D87
:1017F4000895ED91FC9111970895E199FECFFF931F
:10180400FFB7F894AEBBBFBBE09AEDB3FFBFFF9147
:101814000895E19B02C0A895FCCF9FB7F894AEBB96
:10182400BFBBE09A8DB3E81719F0EDBBE29AE19AD9
:101834009FBF089500240E160F06089500240A166B
:101844000B0608955A934A933A932A931A930A9348
:1018540008955D814C813B812A8119810881089515
:00000001FF
