:040000000C9451000B
:100004000C9400000C9400000C9400000C9400006C
:100014000C9400000C9400000C947E000C940000DE
:100024000C9400000C9400000C9400000C9400004C
:100034000C9400000C9400000C9400000C9400003C
:100044000C9400000C9400000C9400000C9400002C
:100054001027E80364000A000100001000011000EA
:1000640001003A001700000000004C444320436C98
:100074006F636B00253032643A253032643A2530A0
:1000840032643A253032640080C0080004006600FF
:100094000A0060026E0002006A028C000000F894FC
:1000A400EE27ECBBF1E0FBBFEBBFE5BF8DE0A2E0C8
:1000B400BB27ED938A95E9F780E098E0A0E6ED93FD
:1000C4000197E9F7EEE8F0E085919591009761F0EA
:1000D400A591B59105901590BF01F00105900D9281
:1000E4000197E1F7FB01F0CFEFE5EDBFE8E0EEBFEC
:1000F400C0E6D2E00C94B300EA93FA93EFB7EA9324
:10010400F40131964F01EAE0F0E0E815F90529F42D
:10011400F50131965F0188249924ECE3F0E0EA15B7
:10012400FB0529F4F20131962F01AA24BB24ECE348
:10013400F0E0E415F50529F4F30131963F01442478
:100144005524ECE3F0E0E615F70531F46624772452
:1001540044245524AA24BB24E991EFBFF991E991E1
:1001640018956497E0E0EABBEBBBE7BBE8BBE4BBF4
:10017400E5BBE1BBE2BBEFBDECE0EEBDE0E0EDBD15
:10018400ECBDE7BDE6BDECE0EBBDE5E3EABDE0E0D8
:10019400E9BDE8BDE0E1E9BFA0E10E94090378946C
:1001A400E3E0EA93A0E00E94C802A0E6B2E00E9465
:1001B400F802E3E0EA93A1E00E94C802FE01FA9388
:1001C400EA93E8E7F0E0FA93EA93F3010E9451031B
:1001D400F2010E945103F5010E945103F4010E94AF
:1001E400510380E10E9474026496DE010E94F802C9
:1001F400A2E3B0E00E949003D3CFFFCFBA93AA93B7
:100204001A930A93AA81BB8112960E94A70330977E
:1002140059F1AA81BB8114960E94A7038F013097DC
:1002240061F00230E0E01E0798F0F80131978F0189
:10023400AA81BB811496ED93FC93AA81BB8112968B
:10024400ED91FD913196FE93EE933197AC81A083AD
:10025400AA81BB810E94A703FF232AF0ED91FD919F
:100264003196FE93EE9306C0AA81BB81EFEFFFEFB8
:10027400ED93FC931981088125960895BA93AA9366
:1002840026970E94B40310E0AC85BD85E0E0F0E061
:10029400ED93FC93EA89FB893196EA8BFB8B3197CA
:1002A400E4912E2FE03009F415C1E12FE03039F448
:1002B400253211F411E002C00E9456030AC1E13054
:1002C400A9F4253219F40E94560302C112E040E059
:1002D40000E02D3211F401E0FCC02B3211F44BE2AA
:1002E400F8C0203211F440E2F4C002C0E23039F424
:1002F40050E013E0203311F40068EBC003C0E33096
:1003040009F0E7C0203310F02A3308F007C0AAE050
:100314005A9F502DE22FE0535E0FDBC0E22FE336ED
:1003240049F40E945D03E889F989A481AA930E9493
:100334006303CEC0E33741F40E945D030E94690366
:100344000E9438031E2F0AC0E03761F40E945D0347
:100354000E9469030E9444031E2F086002600F7705
:1003640030E034C0E43611F0E93611F4046002C020
:10037400E53731F4E4E5F0E0EE83FF8315E00CC0EB
:10038400E83511F4086003C0E83709F0A1C0EEE5D0
:10039400F0E0EE83FF8314E002FF14C00E945D03CB
:1003A4000E947303AB85AA233AF4EA85FB850E9475
:1003B4009E03EA87FB874DE2403011F01F5F01C0C6
:1003C4000B7F04C00E945D030E94730300FD11C0F3
:1003D400151778F407FF08C002FF04C00B7F242F11
:1003E400115001C020E301C020E20E945603515085
:1003F400EFCF312F01FF17C03030A1F003FF06C04B
:10040400EE81FF812591EE83FF8305C0AE81BF811C
:100414002D91AE83BF830E945603503009F0515092
:100424003150EACF4BC020E3EE81FF810E94AB0341
:10043400E887F987EE81FF813296EE83FF83E885B2
:10044400F985AA85BB85AE17BF0750F02F5FA88535
:10045400B985EA85FB85EA1BFB0BEA87FB87EFCFAF
:100464002A3328F003FF02C0295F01C0295D04FD7F
:100474001AC0213320F4A885B985119709F409C05D
:10048400531710F000FF01C013C020E207FF0BC098
:1004940020E3006102FF07C00B7F4A930E946303BD
:1004A400503009F051500E945603503009F0515019
:1004B4003150A885B985129708F0B5CF00FF08C060
:1004C400503031F05150E0E2EA930E946303F8CFD8
:1004D40010E0E0CEAC85BD850E94A7030E94BB035B
:1004E40064960895FF92F82E26970E94B6030E9400
:1004F4007B03309719F4EFEFFFEF23C0DE0116966C
:100504000E949A038D010E947B03EE83FF83E0E047
:10051400E887E987DE011A960E949A030E94A703DE
:10052400FA93EA931A930A93E0E0F1E0FA93EA93D8
:10053400DE011A96A3DE9F01AE81BF81E0E0EC9359
:10054400F9010E94BD032A96FF900895AA93E5B38A
:10055400EF70AE2FE881E07FEA2BE5BB8DE08A9552
:10056400F1F7AA9A8DE08A95F1F7AA988DE08A9519
:10057400F1F77AC0AA93A881E9DFE881E295E883DC
:10058400A881E4DF85E88A95F1F76EC0AA93E88133
:10059400F0E0E659FD4FE081A981AE0FEBDFD98091
:1005A400C88022960895A2E00E948203ACE0E2DFB4
:1005B400A1E00E948203E0E0CE2EDE2E0895AA93ED
:1005C400A881AA3021F0E0916E02DE1648F0E0E046
:1005D400EA93C394AC2DDADFA881AA3009F444C0AD
:1005E400D394A89AA881C6DFA8983EC0BA93AA93C8
:1005F4001A93A981BA81ED91A983BA831E2FE030A1
:1006040019F0A12FDCDFF5CF188123960895AA9362
:10061400E4B3E06FE4BBA29AA09AA19AAA98A8981E
:10062400A998E881E0936E02E058E0936C02E881B7
:10063400E054E0936D02A4E1B0E00E9490030E94B4
:1006440088030E9488030E948803A0E27FDF88EC6D
:1006540090E00197F1F7A8E28DDFA4E08BDFA5E835
:1006640089DFA6E087DF9FDF21960895BA93AA93D6
:10067400A991B991EE27FF276D91662311F0319668
:10068400FBCF0895BA93AA93AA27BB27E991F991BE
:100694000590002011F01196FBCFFD0108950E94F2
:1006A400A2030E94AF0308952A93AD85BE85EF850A
:1006B400F88909950895E889F9893497E88BF98BC5
:1006C4000895AD85BE85EF85F88909950895A889B3
:1006D400B98914960E94A703EE83FF83AE81BF817C
:1006E4000895A889B98914960E94A703EA87FB870D
:1006F4000895DE011C960E949A030E94A7030895A0
:100704000E94BC02A3E0B0E00C949003A0E30E941A
:10071400A80288EC90E00197F1F70895109639F05B
:1007240080ED97E00197F1F7A8951197C9F708951F
:100734000024AF0DB01D0895F195E195F0400895A2
:100744006F2F660F660B762F0895ED91FC9111972C
:1007540008950590F491E02D08957A936A93FA939D
:10076400EA9308955A934A933A932A931A930A93CD
:1007740008955D814C813B812A8119810881089506
:00000001FF
