:0A0000000C94C2000C9400000C9454
:10000A0000000C9400000C9400000C9400000C9466
:10001A0000000C94FB000C9400000C9400000C945B
:10002A0000000C9400000C9400000C9400000C9446
:10003A0000000C9400000C9400000C9400000C9436
:10004A0000000C9400000C9400001027E8036400E0
:10005A000A00010000100001100001002E5F0000DC
:10006A000000005F2E2E2E0000005F2E5F2E000083
:10007A00005F2E2E000000002E0000000000002E5F
:10008A002E5F2E0000005F5F2E000000002E2E2E35
:10009A002E0000002E2E00000000002E5F5F5F0081
:1000AA0000005F2E5F000000002E5F2E2E00000071
:1000BA005F5F00000000005F2E00000000005F5F2D
:1000CA005F000000002E5F5F2E0000005F5F2E5F62
:1000DA000000002E5F2E000000002E2E2E000000D1
:1000EA00005F0000000000002E2E5F000000002EBE
:1000FA002E2E5F0000002E5F5F000000005F2E2E94
:10010A005F0000005F2E5F5F0000005F5F2E2E0021
:10011A0000002E5F2E5F2E5F41424344454647480A
:10012A00494A4B4C4D4E4F505152535455565758BD
:10013A00595A010000000000000000000000000001
:10014A0000000000000000000000000000000000A5
:10015A0000000000000000000000000000002E5F08
:10016A002E5F000080C0BC006502660005006002C8
:10017A006801020022036E010000F894EE27ECBB2E
:10018A00F1E0FBBFEBBFE5BF8DE0A2E0BB27ED933B
:10019A008A95E9F780E098E0A0E6ED930197E9F700
:1001AA00E0E7F1E085919591009761F0A591B5910D
:1001BA0005901590BF01F00105900D920197E1F7A6
:1001CA00FB01F0CFEFE5EDBFE8E0EEBFC0E6D2E01D
:1001DA000C94FC00E2EBE2BFE5E0E3BFE8B7E0FF26
:1001EA00FDCFE0E0E3BFE1E0E8BF08951895AB97E3
:1001FA008BE2A0E0B0E0ECE3F1E00E94B6020CE38F
:10020A0010E020E030E040E050E0E0E0EABBEBBB89
:10021A00E7BBE8BBEFEFE4BBE0E0E5BBE1BBE2BB79
:10022A00EFBDEEBDEDBDECBDE7BDE6BDEBBDEABD84
:10023A00E9BDE8BDE3BFE2BFECBFE0E1E9BFA0E191
:10024A000E9449027894E0E0EFA3E8A7AFA1B8A51D
:10025A0017973CF40E948B02E0E0EC930E94920212
:10026A00F5CFE0E0EFA3E8A7AFA1B8A55A9764F4E9
:10027A00EFA1F8A5DE011196AE0FBF1FEFA1EF5B4C
:10028A00EC930E949202F0CFEEE2EB8FE0E0EFA354
:10029A00E8A7A0DFE9B3E170F0E0E9A7FAA7A9A50A
:1002AA00BAA5119721F400240416050609F004C022
:1002BA0020E030E0E0E0E883A9A5BAA5119729F487
:1002CA00E1E0F0E0E417F50709F002C02F5F3F4FC5
:1002DA00A9A5BAA5109729F4E1E0F0E0E417F5071B
:1002EA0009F010C0E0E0EBA3ECA30217130724F413
:1002FA000E948B02EEE203C00E948B02EFE5EC93B0
:10030A000E949202A9A5BAA5109739F400240416EE
:10031A00050619F4E881E03009F005C0EBA1FCA15B
:10032A003196EBA3FCA3ABA1BCA1A93CE0E0BE07BC
:10033A009CF4AFA1B8A5169779F0AFA1B8A5149708
:10034A0051F4FE017C96FA93EA93A0E6B2E00E9489
:10035A007702E03009F403C0E881E03009F043C0D5
:10036A00E1E0E883E0E0EBA3ECA3EDA3EEA3ADA10B
:10037A00BEA15B9704F5FE017C96FA93EA93AFA1BE
:10038A00B8A5E7E00E94B002EB59FD4FDF010E94D9
:10039A007702E03051F4EDA1FEA1DE011196AE0F15
:1003AA00BF1FAC910E94350206C0EDA1FEA1319695
:1003BA00EDA3FEA3DCCFE0E0EDA3EEA3ADA1BEA1C9
:1003CA00179774F4EDA1FEA1DE015C96AE0FBF1F74
:1003DA00E0E0EC93EDA1FEA13196EDA3FEA3EECFF2
:1003EA00E0E0EFA3E8A749A55AA553CFFFCFAA9308
:1003FA00E5B3EF70AE2FE881E07FEA2BE5BB8DE035
:10040A008A95F1F7AA9A8DE08A95F1F7AA988DE074
:10041A008A95F1F765C0AA93A881E9DFE881E29598
:10042A00E883A881E4DF85E88A95F1F759C0AA93A1
:10043A00E881F0E0EE5DFC4FE081A981AE0FEBDFD1
:10044A005980488022960895A2E00E949802ACE062
:10045A00E2DFA1E00E949802E0E04E2E5E2E0895AF
:10046A00AA93A881AA3011F0571440F0E0E0EA9369
:10047A004394A42DDCDFA881AA3091F15394A89A61
:10048A00A881C9DFA8982CC0AA93E4B3E06FE4BBA3
:10049A00A29AA09AA19AAA98A898A9987880E8817D
:1004AA00E058E0932403E881E054E0932503A4E1B3
:1004BA00B0E00E94A6020E949E020E949E020E9432
:1004CA009E02A0E294DF88EC90E00197F1F7A8E29F
:1004DA00A2DFA4E0A0DFA5E89EDFA6E09CDFB4DFF0
:1004EA0021960895BA93AA93E991F991A991B9919C
:1004FA006D917191671721F46623D1F7EE2708955C
:10050A00671BE1F3E1E008F4E2500895EFA1F8A5D2
:10051A00DE015C96AE0FBF1F0895EFA1F8A53196D4
:10052A00EFA3F8A708950E941002A3E0B0E00C948C
:10053A00A602A0E30E94FC0188EC90E00197F1F783
:10054A000895109639F080ED97E00197F1F7A89594
:10055A001197C9F708956E2F6A9FF0016B9FF00DEE
:10056A000895AC0FBD1F05900D928A95E1F7089585
:00000001FF
