:100000000C942A000C9400000C9400000C94000046
:100010000C9400000C9400000C9400000C94480018
:100020000C9400000C9447000C9446000C9445007E
:100030000C9400000C9400000C9400000C94000040
:100040000C9400000C9400000C9400000C94000030
:100050000C940000F894EE27ECBBF1E0FBBFEBBF83
:10006000E5BF8DE0A2E0BB27ED938A95E9F780E03C
:1000700098E0A0E6ED930197E9F7EFE5EDBFE8E042
:10008000EEBFC0E6D2E00C9477001895189518954D
:1000900018951A930A9300E010E00D33E0E01E0774
:1000A00074F4E5E0EEBDE0E0EFBDE8B7E070E9F73D
:1000B000E0E0EEBDE4E0E8BF0F5F1F4FEECF14C0FD
:1000C0001A930A9300E010E0043FE1E01E0764F495
:1000D000E4E0E3BFE8B7E0FDFDCFE0E0E3BFE1E04F
:1000E000E8BF0F5F1F4FF0CF099119910895E2E02B
:1000F000EABBE0E0EBBBE7BBE8BBE4BBE5BBE1BBD5
:10010000E2BBE4E0E3BFE0E0E2BFECBFEFBDE4E070
:10011000EEBDE0E0EDBDECBDE7BDE6BDEBBDEABD8B
:10012000E9BDE8BDE5E0E9BF789411E0E9B3E1237A
:10013000E13011F4C5DF01C0ACDFA0E0D999A1E046
:10014000E1E0EA2711F4D99801C0D99AEECFFFCFA8
:00000001FF
