:060000000C942F000C948B
:1000060000000C9400000C9400000C9400000C946A
:1000160000000C9400000C945C000C9400000C94FE
:1000260000000C9400000C9400000C9400000C944A
:1000360000000C9400000C9400000C9400000C943A
:1000460000000C9400000C9400000C9400000100C9
:100056000200060054000000F894EE27ECBBF1E025
:10006600FBBFEBBFE5BF8DE0A2E0BB27ED938A9512
:10007600E9F780E098E0A0E6ED930197E9F7E6E579
:10008600F0E085919591009761F0A591B591059065
:100096001590BF01F00105900D920197E1F7FB0164
:1000A600F0CFEFE5EDBFE8E0EEBFC0E6D2E00C949E
:1000B6008500AA93EA93FA93EFB7EA93E0E0C8992A
:1000C600E1E05E2E552059F4E1E0E8BFA0E0D999C1
:1000D600A1E0EA2711F4D99801C0D99A0DC0E1E050
:1000E600E51551F4F30131963F01E2E0F0E0E61543
:1000F600F70511F4E1E0E8BFE991EFBFF991E99165
:10010600A9911895E2E0EABBE0E0EBBBE7BBE8BBF0
:10011600E4BBE5BBE1BBE2BBEFBDEBE0EEBDE0E07F
:10012600EDBDECBDE7BDE6BDE4EFEBBDE3E2EABD48
:10013600E0E0E9BDE8BDE0E1E9BF7894FFCFFFCF9D
:00000001FF
