:020000000C945E
:10000200DB000C9400000C9400000C9400000C9493
:1000120000000C9400000C9400000C9408010C9455
:1000220000000C9400000C9400000C9400000C944E
:1000320000000C9400000C9400000C9400000C943E
:1000420000000C9400000C9400000C9400000C942E
:1000520000001027E80364000A00010000100001FC
:100062001000010000006002630268026D0271026A
:10007200730278027C028102840289028D0292025A
:10008200950298029C02A102A602AA02AE02B00246
:10009200B402B902BD02C202C7024142434445460C
:1000A2004748494A4B4C4D4E4F5051525354555666
:1000B2005758595A2E2D002D2E2E2E002D2E2D2E14
:1000C200002D2E2E002E2E2D2E002D2D2E002E2E0A
:1000D2002E2E002E2D2D2D002D2E2D002E2D2E2ECE
:1000E200002E2D2D2E002D2D2E2D002E2E2D002EEC
:1000F2002E2E2D002E2D2D002D2E2E2D002D2E2DAF
:100102002D002D2D2E2E000080C00200040066005E
:1001120003006002B60005006302B9000500680230
:10012200BE0004006D02C30002007102BC000500A3
:100132007302C70004007802CC0005007C02D000E4
:1001420003008102BB0005008402D500040089027D
:10015200DA0005008D02DE0003009202D7000300E0
:100162009502C00004009802D60005009C02E3003C
:100172000500A102E8000400A602BF000400AA02D2
:10018200BA000200AE02B7000400B002ED000500A2
:10019200B402F1000400B902F6000500BD02FA0043
:1001A2000500C202FF000500C70204010200CC02E2
:1001B2000A010000F894EE27ECBBF1E0FBBFEBBFB5
:1001C200E5BF8DE0A2E0BB27ED938A95E9F780E0D9
:1001D20098E0A0E6ED930197E9F7ECE0F1E0859174
:1001E2009591009761F0A591B59105901590BF0189
:1001F200F00105900D920197E1F7FB01F0CFEFE5D9
:10020200EDBFE8E0EEBFC0E6D2E00C942201189503
:100212001A930A9300E010E00130E0E01E0774F444
:10022200E0E0EFBDE5E0EEBDE8B7E070E9F7E0E061
:10023200EEBDE4E0E8BF0F5F1F4FEECF09911991C9
:100242000895E0E0EABBEBBBE7BBE8BBEFEFE4BB42
:10025200E0E0E5BBE1BBE2BBEFBDEBE0EEBDE0E021
:10026200EDBDECBDE7BDE6BDE0E3EBBDE3EDEABD10
:10027200E0E0E9BDE8BDE0E1E9BFA0E10E94A30141
:100282007894C89B05C0C4DFF20131962F013197E3
:10029200E6E0F0E0E415F50519F4A3E70E948F010A
:1002A200A2E60E948F01EDCFFFCFAA93EBB3EF70CE
:1002B200AE2FE881E07FEA2BEBBB8DE08A95F1F768
:1002C200DA9A8DE08A95F1F7DA988DE08A95F1F75E
:1002D20065C0AA93A881E9DFE881E295E883A88155
:1002E200E4DF85E88A95F1F759C0AA93E881F0E046
:1002F200E453FD4FE081A981AE0FEBDF7980688086
:1003020022960895A2E00E94D101ACE0E2DFA1E0D2
:100312000E94D101E0E06E2E7E2E0895AA93A8815C
:10032200AA3011F0791440F0E0E0EA936394A62D2C
:10033200DCDFA881AA3091F17394D89AA881C9DF31
:10034200D8982CC0AA93EAB3E06FEABBD29AD09AAB
:10035200D19ADA98D898D9989880E881E058E093B1
:10036200CE02E881E054E093CF02A4E1B0E00E9423
:10037200DF010E94D7010E94D7010E94D701A0E2AB
:1003820094DF88EC90E00197F1F7A8E2A2DFA4E005
:10039200A0DFA5E89EDFA6E09CDFB4DF21960895EA
:1003A2000E946A01A3E0B0E00C94DF01A0E30E9486
:1003B200560188EC90E00197F1F70895109639F014
:1003C20080ED97E00197F1F7A8951197C9F7089585
:00000001FF
